:10056C0008341010101010101010083C000000007F
:10057C0000000000084500000000000000000133EE
:10058C00170328181E1E0322073B1E012600C1005C
:08059C00C102C103C104C10149
:1008BF00E4FF74342FF87610743C2FF8E4F60FBF72
:0208CF0008F02F
:0108D1002204
:1003B500E52D452C600302044EF52C752D01120424
:1003C5004F8F2EE52B652EFF552EF527E52EF45F75
:1003D500F544852E2BE52724F3602B24FD602E1490
:1003E50060422405705B1208BFE52670057526017D
:1003F500804FE526B401057526028045E526640291
:10040500703FF526803B1208BFB20080341208BF4A
:10041500E5266402702B0533E533D39463402275DA
:100425003363801D1208BFE526B4020E1533E5338C
:10043500C3940A500C75330A8007E526B40102D22D
:0A04450003E54424EF7002C2032215
:10024A00E54E454D600302030AF54D754E0112064F
:10025A00B48E2F8F307B007A00792812066F75349E
:10026A0011E52604F535E5267037AE2FAF30FC7D53
:10027A00641201E78F39AE2FAF307C007D64120122
:10028A00E77E007F0ACFCDCFCECCCE1201E78F3AE0
:10029A00AE2FAF307C007D0A1201E78D3B7542011B
:1002AA0022E52664017043300320E52975F00A84AB
:1002BA00F537E52975F00A8485F038753912E52A8B
:1002CA0075F00A84F53AE52A802FE52875F00A8444
:1002DA00F537E52875F00A8485F038753912E5296D
:1002EA0075F00A84F53AE529800FE526B40211E58E
:1002FA003375F00A84F53AE53375F00A8485F03BE4
:01030A0022D0
:10062200E5297009E52A7005200402D20420001988
:10063200E53375F00AA4FFD3E5309FE52F95F0402E
:1006420003D38001C392018004A2049201A204E4B4
:1006520033F5452000047F0180027F008F46300180
:0D06620007A202E433FF80027F008F4722D1
:03000B0002030BE2
:10030B00C0E0C0F0C083C082C0D075D000C000C0B8
:10031B0001C002C003C004C005C006C007052DE51F
:10032B002D7002052C640A452C7004F52CF52D0557
:10033B004EE54E7002054D6432454D7004F54DF59A
:10034B004E0525E525B408037525000521E521B4E7
:10035B006405752100B2020532E53270020531FFEA
:10036B00AE31BE130BBF8808753100753200C20465
:10037B0074342525F8E6FD743C2525F8E6FBAF25FE
:10038B001207C374452525F8E6FDAF25120762D089
:10039B0007D006D005D004D003D002D001D000D0B6
:0A03AB00D0D082D083D0F0D0E03231
:1008AA00538E7F5389F0758A18758CFCC28DD28C51
:0508BA00D2A9D2AF221B
:10079400800AE530B4520EE52FB403091206B48E74
:1007A4002F8F3080ED1208E51208AA7B007A0079B9
:0F07B400221205D01203B512062212024A80F556
:1006F500EF24FB601414601B14602224037026E5AC
:10070500A0541F4480F5A0801CE5A0541F44A0F50B
:10071500A08012E5A0541F44C0F5A08008E5A054B0
:090725001F44E0F5A053A01F22BF
:0F08E5007580FF7F041206F5E4F5800F0206F51B
:1008D200E4FEC297EF1392A3EFC313FFD2970EBEAB
:0208E20008F01C
:0108E40022F1
:08085A0075F00A84E5F04EFD83
:10086200C29300C29700D293001208D2AF051208B9
:04087200D2C2932239
:10072E00E4FDC29300C29700D293001208D2E4FFF8
:10073E00C297EDC313FD30A303430580D2970FBFBD
:10074E0008EEC29300C29700D29700C2A300D2A3B4
:03075E0000AF05E4
:010761002275
:1005D000E4FD7F8E12086212016DFF75F00A84C47B
:1005E00054F0FEEF7F8412085A900001120186FF3A
:1005F00075F00A84C454F0FEEF7F8212085A90000E
:1006000002120186FF75F00A84C454F0FEEF75F003
:100610000A84E5F04EFD7F801208627D807F8E02A5
:0206200008626E
:10066F007F8512072EEFC4540F75F00AA4FEEF54C6
:10067F000F2E1201B37F8312072EEFC4540F75F0A4
:10068F000AA4FEEF540F2E9000011201C57F8112B4
:10069F00072EEFC4540F75F00AA4FEEF540F2E90DF
:0506AF0000020201C57C
:10044F00C2C4D2B4D2B5D2C2D2B3D2B2D2B1D2B068
:10045F0020B0027F0720B1027F0620B2027F052065
:10046F00B3027F04C2C2D2B4D2B5D2C4D2B3D2B215
:10047F00D2B1D2B020B0027F0B20B1027F0A20B2DE
:10048F00027F0920B3027F08C2B5D2B4D2C4D2C250
:10049F00D2B3D2B2D2B1D2B020B0027F0F20B1020C
:1004AF007F0E20B2027F0D20B3027F0CC2B4D2C4E4
:1004BF00D2B5D2C2D2B3D2B2D2B1D2B020B0027FB3
:1004CF001320B1027F1220B2027F1120B3027F10DE
:0104DF0022FA
:0C05A400010D00010EFF010F000110FF0F
:10076200ED6010A8077401088002C333D8FCF4526C
:100772000D800DA8077401088002C333D8FC420D16
:10078200E50D650E600B850D807F041206F5850D63
:010792000E58
:010793002243
:10081900EF6005430F108003530FEFE50F6510607C
:1008290011850F80E5A0541F44A0F5A053A01F8592
:020839000F109E
:01083B00229A
:1005B000134FC0F9A4B0999282F880908883C6A1A5
:0F05C000868EFFC1BF0862010204081020408030
:1007C3008F088D098B0A7580FF7F071206F5746207
:1007D3002508F8E6F5807F061206F5744F2509F81B
:0F07E300E6F580E50A600353807F7F070206F585
:040876007F057E007C
:10087A00EF1FAA0670011E4A600BE4FDEDC3940C3B
:05088A0050EE0D80F7A7
:01088F002246
:02083C00A9070A
:10083E00E4FBC294E9139294120876D294E9C3139E
:0C084E00F90BBB08ED7F057E0002087A64
:10089000E4FBC294ECC313FCD29430940343048071
:0908A0001208760BBB08EBAF0453
:0108A900222C
:1007F200C205D2947F0C7E0012087AC2947F507E8A
:100802000012087AD2947F0A7E0012087AA2949289
:0608120005120876A205A4
:0108180022BD
:1006B4001207F27FCC12083C7F4412083C1207F266
:1006C4007FCC12083C7FBE12083C120890A9071286
:1006D4000890AB07EBFEE9FDEEFCED8C0BF50CECA2
:1006E4001200B37BCD7ACC79CC783F120011020092
:0106F400EC19
:10000E00020162EC5D046005E859047003020158B8
:10001E00120123580460F6EC4860F2EC7004FDFE09
:10002E00FF22C860DB2481C85009C39860025006C5
:10003E0002015F9850CAF582E9294B4A7005AB82DE
:10004E0002014E75F0007C1A7880C3EF9BEE9AED9C
:10005E0099400DC3EF9BFFEE9AFEED99FDE842F03D
:10006E00DC23ACF0D0E0FFD0E0FED0E0FDAB822090
:10007E00E7101BEB60BAEC2CFCEF33FFEE33FEED1A
:10008E0033FD02013AE803F830E705C0F075F000E1
:10009E00EF2FFFEE33FEED33FD40B830E7C280AAFE
:1000AE0075F020800E75F010800575F0087D007ECD
:1000BE00007F003392D530D50312023CEC33401052
:1000CE00EF33FFEE33FEED33FDEC33FCD5F0ED22D6
:0E00DE00E5F0247EA2D513CC92E7CDCEFF2212
:1000EC00EDD2E7CD33EC3392D524814006E4FFFE0C
:1000FC00FDFC22FCE4CFCECDCC24E0501174FF806B
:10010C00EDC3CC13CCCD13CDCE13CECF13CF047007
:07011C00F030D5DE02023CC9
:10012300E9D2E7C933E833F892D5EDD2E7CD33EC22
:0701330033FC5002B2D5229B
:10013A00EC30E7100FBF000C0EBE00080DBD000426
:10014A000BEB6014A2D5EB13FCED92E7FD2274FFD2
:10015A00FCFDFEFF22E480F8A2D574FF13FC7D802B
:03016A00E480EF3F
:030000000204E017
:0C04E000787FE4F6D8FD758169020527DD
:10016D00BB010689828A83E0225002E722BBFE0290
:09017D00E32289828A83E49322C3
:10018600BB010CE58229F582E5833AF583E022502E
:1001960006E92582F8E622BBFE06E92582F8E22278
:0D01A600E58229F582E5833AF583E4932292
:1001B300BB010689828A83F0225002F722BBFE012B
:0201C300F32225
:1001C500F8BB010DE58229F582E5833AF583E8F070
:1001D500225006E92582C8F622BBFE05E92582C81C
:0201E500F22204
:1001E700BC000BBE0029EF8DF084FFADF022E4CCFC
:1001F700F875F008EF2FFFEE33FEEC33FCEE9DECC5
:10020700984005FCEE9DFE0FD5F0E9E4CEFD22ED0A
:10021700F8F5F0EE8420D21CFEADF075F008EF2F54
:10022700FFED33FD4007985006D5F0F222C398FD45
:050237000FD5F0EA22E2
:0E023C00C3E49FFFE49EFEE49DFDE49CFC22D3
:1004EC00020794E493A3F8E493A34003F68001F28B
:1004FC0008DFF48029E493A3F85407240CC8C33311
:10050C00C4540F4420C8834004F456800146F6DFDF
:10051C00E4800B010204081020408090056CE47EFE
:10052C00019360BCA3FF543F30E509541FFEE493D4
:10053C00A360010ECF54C025E060A840B8E493A39B
:10054C00FAE493A3F8E493A3C8C582C8CAC583CAC6
:10055C00F0A3C8C582C8CAC583CADFE9DEE780BE7E
:0105CF00002B
:00000001FF
