:1006730008371010101010101010083F0000000071
:1006830000000000084800000000000000000136E0
:10069300170329000000032207593001260001280F
:0D06A3000001310001520001530001300040
:10092900E4FF74372FF87610743F2FF8E4F60FBF01
:0209390008F0C4
:01093B002299
:10058000E52E452D7079F52D752E011204488F2F1B
:10059000E52F652CFF552FF527E52FF45FF54785EF
:1005A0002F2CE52724F3602824FD602B14603C24C5
:1005B00005704C120929E526700475260122E526EE
:1005C000B4010475260222E52664027032F5262263
:1005D0001209296328FF22120929E526B4020C0515
:1005E00036E536D394634003753663120929E52650
:1005F000B4020C1536E536C3940A500375360A2248
:1002B000E55145506003020395F5507551017F01EA
:1002C0001206008E328F337B007A007929120722C2
:1002D000E528700ED3E5339536E53294004003757A
:1002E0003001E528B4010BE52A7007E52B70037592
:1002F0003001753711E52604F538E5267037AE3242
:10030000AF33FC7D6412024D8F3CAE32AF337C00C4
:100310007D6412024D7E007F0ACFCDCFCECCCE12AF
:10032000024D8F3DAE32AF337C007D0A12024D8DFF
:100330003E75450122E52664017044E5526020E5E2
:100340002A75F00A84F53AE52A75F00A8485F03BAF
:10035000753C12E52B75F00A84F53DE52B802FE501
:100360002975F00A84F53AE52975F00A8485F03B91
:10037000753C12E52A75F00A84F53DE52A800FE503
:1003800026B40211E53675F00A84F53DE53675F0C0
:060390000A8485F03E2204
:10086200E55360047F0180027F008F48E528700411
:100872007F0180027F008F49E5306004AF31800242
:050882007F008F4A22F7
:03000B0002039657
:10039600C0E0C0F0C083C082C0D075D000C000C02D
:1003A60001C002C003C004C005C006C007052EE593
:1003B6002E7002052D640A452D7004F52DF52E05C7
:1003C60051E5517002055064C845507004F550F56A
:1003D600510525E525B408037525000521E521B459
:1003E60064067521006331FFE5285530601A05352E
:1003F600E53570020534FFAE34BE130CBF880975AF
:10040600340075350075300074372525F8E6FD741F
:100416003F2525F8E6FBAF2512080C74482525F87C
:10042600E6FDAF251207A0D007D006D005D004D030
:1004360003D002D001D000D0D0D082D083D0F0D06B
:02044600E032A2
:10091400538E7F5389F0758A18758CFCC28DD28CE6
:05092400D2A9D2AF22B0
:100887007F0112060012094F1209147B007A0079C2
:0F089700221206D01205801208621202B080F5FC
:10076700EF24FB601414601B14602224037026E539
:10077700A0541F4480F5A0801CE5A0541F44A0F599
:10078700A08012E5A0541F44C0F5A08008E5A0543E
:090797001F44E0F5A053A01F224D
:0F094F007580FF7F04120767E4F5800F020767CA
:10093C00E4FEC297EF1392A3EFC313FFD2970EBE40
:02094C0008F0B1
:01094E002286
:0808C40075F00A84E5F04EFD19
:1008CC00C29300C29700D2930012093CAF051209E3
:0408DC003CC2932265
:1007D800E4FDC29300C29700D2930012093CE4FFE3
:1007E800C297EDC313FD30A303430580D2970FBF13
:1007F80008EEC29300C29700D29700C2A300D2A30A
:0308080000AF0539
:01080B0022CA
:1006D000E4FD7F8E1208CC1201D3FF75F00A84C4AA
:1006E00054F0FEEF7F841208C49000011201ECFF69
:1006F00075F00A84C454F0FEEF7F821208C49000A3
:10070000021201ECFF75F00A84C454F0FEEF75F09C
:100710000A84E5F04EFD7F801208CC7D807F8E023A
:0207200008CC03
:100722007F851207D8EFC4540F75F00AA4FEEF5468
:100732000F2E1202197F831207D8EFC4540F75F0DF
:100742000AA4FEEF540F2E90000112022B7F811299
:1007520007D8EFC4540F75F00AA4FEEF540F2E9081
:05076200000202022B61
:10044800C2B7D2B4D2B5D2B6D2B3D2B2D2B1D2B088
:1004580020B0047F07801320B1047F06800C20B2EF
:10046800047F05800520B3027F04C2B6D2B4D2B59A
:10047800D2B7D2B3D2B2D2B1D2B020B0047F0B80FF
:100488001320B1047F0A800C20B2047F0980052064
:10049800B3027F08C2B5D2B4D2B7D2B6D2B3D2B201
:1004A800D2B1D2B020B0047F0F801320B1047F0EE8
:1004B800800C20B2047F0D800520B3027F0CC2B4EB
:1004C800D2B7D2B5D2B6D2B3D2B2D2B1D2B020B0AE
:1004D800047F13801320B1047F12800C20B2047FA4
:0B04E80011800520B3027F1075B0FFEB
:0104F30022E6
:1007A000E4F5087509FFED6010A8077401088002E0
:1007B000C333D8FCF45208800DA8077401088002E6
:1007C000C333D8FC4208E5086509600B8508807FC3
:0707D0000412076785080908
:0107D70022FF
:1006B0001354C0F9A4B0999282F880908883C6A19F
:0F06C000868EFFC1BF086701020408102040802A
:10080C008F088D098B0A7580FF7F07120767746745
:10081C002508F8E6F5807F0612076774542509F859
:0F082C00E6F580E50A600353807F7F07020767C8
:0408E0007F057E0012
:1008E400EF1FAA0670011E4A600BE4FDEDC3940CD1
:0508F40050EE0D80F73D
:0108F90022DC
:0208A600A907A0
:1008A800E4FBC294E91392941208E0D294E9C313CA
:0C08B800F90BBB08ED7F057E000208E490
:1008FA00E4FBC294ECC313FCD29430940343048007
:09090A001208E00BBB08EBAF047E
:0109130022C1
:10083B00C200D2947F0C7E001208E4C2947F507EDB
:10084B00001208E4D2947F0A7E001208E4A294926C
:06085B00001208E0A200FB
:010861002274
:020600008F0B5E
:1006020012083B7FCC1208A67F441208A67F207EE8
:10061200031208E412083B7FCC1208A67FBE120820
:10062200A61208FAA9071208FAEFFEE9FFE50B1471
:10063200601814602624027037AD07AC06E412017C
:1006420019E4FBFA7980783D8020AD07AC06E4120C
:100652000119E4FBFA7920783F800FAD07AC06E47C
:10066200120119E4FBFA79C8784012000E12015205
:010672002265
:10000E00EC4D6011E8497017ED33EC3304600DE4EC
:10001E00FCFFFEFD22E933E8330470F80201BE1244
:10002E00018958046009E4CC248150062850090245
:10003E0001C82840030201C5C0E0EB4A7044B980F4
:10004E0006D0E0FB0201B4EF4E701CBD8008EBFF42
:10005E00EAFEE9FD80EBE98DF0A4FEE5F00200F783
:10006E00E9CDF9EAFEEBFFEF89F0A4FCE5F0CE89CD
:10007E00F0A42EFFE435F0CD89F0A42DFEE435F08A
:10008E008067EF4E7005BD80D780C3EF8BF0A4ACB8
:10009E00F0EE8BF0A42CFCE435F0F8EF8AF0A42CF3
:1000AE00E5F038FCE433CB8DF0A42CFCE5F03BF806
:1000BE00EE8AF0A42CFCE5F038F8E433CF89F0A4F6
:1000CE002CFCE5F038CF3400CE89F0A42FFFE5F0FC
:1000DE003EFEE433C98DF0A42EFEE5F039CD8AF054
:1000EE00A42FFFE5F03EFEE43DFD33D0E0FB5007CC
:1000FE000BBB000F0201C8EC2CFCEF33FFEE33FEFE
:06010E00ED33FD0201A02B
:1001140075F020800E75F010800575F0087D007E66
:10012400007F003392D530D5031202A2EC33401085
:10013400EF33FFEE33FEED33FDEC33FCD5F0ED226F
:0E014400E5F0247EA2D513CC92E7CDCEFF22AB
:10015200EDD2E7CD33EC3392D524814006E4FFFEA5
:10016200FDFC22FCE4CFCECDCC24E0501174FF8004
:10017200EDC3CC13CCCD13CDCE13CECF13CF0470A1
:07018200F030D5DE0202A2FD
:10018900E9D2E7C933E833F892D5EDD2E7CD33ECBC
:0701990033FC5002B2D52235
:1001A000EC30E7100FBF000C0EBE00080DBD0004C0
:1001B0000BEB6014A2D5EB13FCED92E7FD2274FF6C
:1001C000FCFDFEFF22E480F8A2D574FF13FC7D80C5
:0301D000E480EFD9
:030000000204F403
:0C04F400787FE4F6D8FD75816E02053BB0
:1001D300BB010689828A83E0225002E722BBFE022A
:0901E300E32289828A83E493225D
:1001EC00BB010CE58229F582E5833AF583E02250C8
:1001FC0006E92582F8E622BBFE06E92582F8E22212
:0D020C00E58229F582E5833AF583E493222B
:10021900BB010689828A83F0225002F722BBFE01C4
:02022900F322BE
:10022B00F8BB010DE58229F582E5833AF583E8F009
:10023B00225006E92582C8F622BBFE05E92582C8B5
:02024B00F2229D
:10024D00BC000BBE0029EF8DF084FFADF022E4CC95
:10025D00F875F008EF2FFFEE33FEEC33FCEE9DEC5E
:10026D00984005FCEE9DFE0FD5F0E9E4CEFD22EDA4
:10027D00F8F5F0EE8420D21CFEADF075F008EF2FEE
:10028D00FFED33FD4007985006D5F0F222C398FDDF
:05029D000FD5F0EA227C
:0E02A200C3E49FFFE49EFEE49DFDE49CFC226D
:10050000020887E493A3F8E493A34003F68001F282
:1005100008DFF48029E493A3F85407240CC8C333FC
:10052000C4540F4420C8834004F456800146F6DFCB
:10053000E4800B0102040810204080900673E47EE2
:10054000019360BCA3FF543F30E509541FFEE493C0
:10055000A360010ECF54C025E060A840B8E493A387
:10056000FAE493A3F8E493A3C8C582C8CAC583CAB2
:10057000F0A3C8C582C8CAC583CADFE9DEE780BE6A
:0106CF00002A
:00000001FF
