:10055E00080C1414141414141414082400000000AD
:10056E000000000008180000000000000000011646
:10057E000001142D010B05012100011700010800D7
:10058E0001200002220000012C00011501020900C9
:01059E00005C
:10042300120512EF24FE603214605714605824033F
:100433007075E5166402706FE517600FE50B24FB1A
:10044300F50BC394055060750B3222E51424FBF5BC
:1004530014C39405505175143222E5166402704793
:10046300E517600FE50B2405F50BD394324038757F
:100473000B0522E5142405F514D394324029751491
:10048300052263170122E516700475160122E5168D
:10049300B40109751602E4F517F51522E516B40241
:0704A30006E4F516751501D2
:0104AA00222F
:10073F00E4FF740C2FF8761474242FF8E4F6741871
:08074F002FF8E4F60FBF08EAE1
:01075700227F
:10001E00E4FBFA7F031206C3EF75F064A4FFAEF0A3
:10002E007C007DFF1202AAEF75F005A4AAF0FBE595
:10003E00156026E50B75F00AA4FFD3EB9FEA95F049
:10004E004013E51475F00AA4FFC3EB9FEA95F05038
:10005E00047F0180027F008F20852021E5167040ED
:10006E0012073F750C107C007D64AF03AE021202C6
:10007E00AA8F117C007D64AF03AE021202AA7E002D
:10008E007F0ACFCDCFCECCCE1202AA8F12AE02AF48
:10009E00037C007D0A1202AA8D13752901020160EC
:1000AE00E516B4023012073F750C11E51475F00A0F
:1000BE0084F50FE51475F00A8485F010752701E5B7
:1000CE000B75F00A84F512E50B75F00A8485F013B2
:1000DE00752A01807DE5166401707712073F750C55
:1000EE0013E520700B75110A75120A75130A8062DA
:1000FE00D3E5239463E52294004024AE22AF237C03
:10010E00007D641202AA8F11AE22AF237C007D64A3
:10011E001202AA7E007F0ACFCDCFCECCCE8016D3D0
:10012E00E5239409E5229400401F751114AE22AF09
:10013E00237C007D0A1202AA8F12AE22AF237C000E
:10014E007D0A1202AA8D1380097511147512148579
:10015E0023137530007531007532247B007A0079D7
:04016E000C0201720C
:10062300E51670047F0180027F008F18E516B40180
:10063300047F0180027F008F19E516B402047F0155
:1006430080027F008F1AE5206004AF2180027F00C3
:0B0653008F1F7B007A0079180205A3BE
:03001B000204AB31
:1004AB00C0E0C0F0C083C082C0D075D000C000C017
:1004BB0001C002C003C004C005C006C0070508E5A3
:1004CB0008B49606750800632101E520601E050A35
:1004DB00E50A70020509D394F4E5099401400D7502
:1004EB000900750A001200008E228F23D007D00658
:1004FB00D005D004D003D002D001D000D0D0D08210
:07050B00D083D0F0D0E032F4
:10077100538EBF53890F758B18758DFCC28FD28E26
:05078100D2ABD2AF2253
:1007C400538EBF5389F0758A50758CFBC28DC28CD1
:0307D400C2A92295
:1007B0001207E81207711207C4120423120623124B
:0407C000001E80F5A2
:03059F000139011E
:10051200E5396401703130B00930B10630B20320E0
:10052200B3257F147E00120758E4F53920B0037F0B
:10053200012220B1037F022220B2037F032220B3D3
:10054200037F04227F002230B00F30B10C30B20999
:0C05520030B3067539017F00227F0022C3
:1002FF00E4F538D2B4D2B5D2C2D2C4C2B3C2B2C2FC
:10030F00B1C2B0E5396401706A30C40930C2063039
:10031F00B50320B45E7F147E0012075820C4057504
:10032F003801801B20C205753802801320B5057572
:10033F003803800B20B40575380480037F0022E456
:10034F00F539C2B4C2B5C2C2C2C4D2B3D2B2D2B1ED
:10035F00D2B020B003AF382220B106E5382404FF15
:10036F002220B206E5382408FF2220B318E53824EE
:10037F000CFF2230C40F30C20C30B50930B40675F3
:07038F0039017F00227F000D
:010396002244
:10065E00EF24FB601414601B14602224037026E543
:10066E00A0541F4480F5A0801CE5A0541F44A0F5A3
:10067E00A08012E5A0541F44C0F5A08008E5A05448
:09068E001F44E0F5A053A01F2257
:0F07E8007580FF7F0412065EE4F5800F02065E47
:1007D700EF1FAC0670011E4C60060000000080F0A1
:0107E70022EF
:0A075800EF1FAC0670011E4C600E8E
:0C07620075360C7537A9D537FDD536FA71
:03076E0080E822FE
:10078600C0F9A4B0999282F880908883C6A1868E1B
:05079600C18CBFC3FF90
:1005E5008F338D348B357580FF7F0712065EE533BB
:1005F50014FFF87401088002C333D8FCF5807F0628
:1006050012065EE53490078693F580E53560035361
:0E061500807F7F0712065E7F017E000207587D
:100172008B2D8A2E892F120264FDAB30AA31A9324F
:10018200120264FB7F011205E5AB2DAA2EA92F9066
:10019200000112027DFDAB30AA31A932900001129A
:1001A200027DFB7F021205E5AB2DAA2EA92F90003E
:1001B2000212027DFDAB30AA31A932900002120276
:1001C2007DFB7F031205E5AB2DAA2EA92F9000031C
:1001D20012027DFDAB30AA31A93290000312027DDA
:1001E200FB7F041205E5AB2DAA2EA92F9000041265
:1001F200027DFDAB30AA31A93290000412027DFBD0
:100202007F051205E5AB2DAA2EA92F90000512023B
:100212007DFDAB30AA31A93290000512027DFB7F31
:10022200061205E5AB2DAA2EA92F90000612027D1B
:10023200FDAB30AA31A93290000612027DFB7F0786
:100242001205E5AB2DAA2EA92F90000712027DFD03
:10025200AB30AA31A93290000712027DFB7F08025F
:0202620005E5B0
:0605A3008B2D8A2E892F2A
:1005A900E4FFAB2DAA2EA92F8F8275830012027D3D
:1005B900B40110A8077401088002C333D8FCF452AF
:1005C90030800DA8077401088002C333D8FC42307B
:0C05D9000FBF08CE8530807F0402065E54
:04072500D2A07F05DA
:10072900000000000000000000000000000000AE12
:06073900071FEE70EB2229
:0F07F700D2A1120725C2A17F05120729C2A02295
:0C080600C2A1120725D2A17F050207291C
:02069700AD07AD
:10069900E4FCC2A07F05120729ED30E704D2A1804E
:1006A90002C2A17F05120729D2A0ED25E0FD7F0531
:0906B9001207290CBC08DBC2A0E9
:0106C2002215
:1006EB00E4FC120725ED25E0FD30A103430501C213
:0C06FB00A07F051207290CBC08E8AF0521
:0107070022CF
:0B070800120697120713AF03120697AA
:10071300120725A2A1E433FDC2A07F05120729AF6A
:0107230005D0
:0107240022B2
:10000300C2A0EF24FF92A17F05120729120725C280
:08001300A0D2A17F050207291C
:0206C300AB0783
:1006C5001207F77F901207081208061207F77F91A5
:1006D5001206971207131206EBAD077F01120003EE
:0506E500120806AF053C
:0106EA0022ED
:10079B00AB071207F77F901206971207137F4012D1
:0507AB0007080208062A
:0300000002039761
:0C039700787FE4F6D8FD7581390203DEA2
:10026400BB010689828A83E0225002E722BBFE0298
:09027400E32289828A83E49322CB
:10027D00BB010CE58229F582E5833AF583E0225036
:10028D0006E92582F8E622BBFE06E92582F8E22280
:0D029D00E58229F582E5833AF583E493229A
:1002AA00BC000BBE0029EF8DF084FFADF022E4CC38
:1002BA00F875F008EF2FFFEE33FEEC33FCEE9DEC01
:1002CA00984005FCEE9DFE0FD5F0E9E4CEFD22ED47
:1002DA00F8F5F0EE8420D21CFEADF075F008EF2F91
:1002EA00FFED33FD4007985006D5F0F222C398FD82
:0502FA000FD5F0EA221F
:1003A3000207B0E493A3F8E493A34003F68001F2B9
:1003B30008DFF48029E493A3F85407240CC8C3335B
:1003C300C4540F4420C8834004F456800146F6DF2A
:1003D300E4800B010204081020408090055EE47E57
:1003E300019360BCA3FF543F30E509541FFEE4931F
:1003F300A360010ECF54C025E060A840B8E493A3E6
:10040300FAE493A3F8E493A3C8C582C8CAC583CA10
:10041300F0A3C8C582C8CAC583CADFE9DEE780BEC8
:0105A2000058
:00000001FF
