:100595000833101010101010101008400000000053
:1005A50000000000082A00000000000000000132E1
:0605B50019012400C10041
:10083E00E4FF74332FF8761074402FF8E4F60FBFF0
:02084E0008F0B0
:010850002285
:10052B00E52845277063F5277528011203638F298A
:10053B00E5296526FF5529F525E529F45FF5258580
:10054B00292624FB603E24FD602414602C240570B6
:10055B003812083EE524700475240122E524B40109
:10056B000475240222E5246402701EF5242212086D
:10057B003EE524B4011315322212083EE524B401E2
:0A058B000805322212083EB20022D9
:10024800E53F453E6003020362F53E753F01120536
:10025800E08E3C8F3D20002AE524B40125E5327567
:10026800F064A4FFAEF0C3E53D9FE53C9E5005E475
:10027800F5488022D3E53D9FE53C9E40197548FF2F
:100288008014AE3CAF3D7C007D641201E5EF75F053
:1002980007A424A7F548AF487E007C017DF412012D
:1002A800D31C7DFF1201E58E218F22E52470527543
:1002B800330CAE3CAF3D7C037DE81201E5EF4E60A8
:1002C8000280027F108F37AE3CAF3D7C037DE81281
:1002D80001E57E007F64CFCDCFCECCCE1201E58F75
:1002E80038AE3CAF3D7C007D641201E57E007F0A9C
:1002F800CFCDCFCECCCE1201E58F39AE3CAF3D800D
:100308004DE524B40115753311E53275F00A84F50D
:1003180039E53275F00A8485F03A22E524640270E2
:100328003975330AAE21AF22FC7D641201E58F389E
:10033800AE21AF227C007D641201E57E007F0ACFEA
:10034800CDCFCECCCE1201E58F39AE21AF227C00C5
:0B0358007D0A1201E58D3A7545012277
:1006BB00A200B3E433F52AE52470047F0180027FA6
:1006CB00008F2BE524B401047F0180027F008F2C67
:0E06DB00E524B403047F0180027F008F2D22EE
:03000B000204A646
:1004A600C0E0C0F0C083C082C0D075D000C000C01C
:1004B60001C002C003C004C005C006C0070528E588
:1004C6002870020527640A45277004F527F52805D4
:1004D6003FE53F7002053E640A453E7004F53EF571
:1004E6003F0523E523B4080375230074332523F859
:1004F600E6FD74402523F8E6FBAF23120653742A63
:100506002523F8E6FDAF23120689D007D006D005CD
:10051600D004D003D002D001D000D0D0D082D08376
:05052600D0F0D0E0322E
:10081400538E7F5389F0758A18758CFCC28DD28CE7
:05082400D2A9D2AF22B1
:10075A001205E0C3EF9434EE942150F412086012AB
:0D076A00081412052B1202481206BB80F580
:04079400D2A07F0A66
:10079800000000000000000000000000000000AEA3
:0607A800071FEE70EB22BA
:0F085100D2A1120794C2A17F0A120798C2A02257
:0C086F00C2A1120794D2A17F0A020798D0
:0206E900AD075B
:1006EB00E4FCC2A07F0A120798ED30E704D2A18088
:1006FB0002C2A17F0A120798D2A0ED25E0FD7F0A66
:09070B001207980CBC08DBC2A027
:0107140022C2
:10077700E4FC120794ED25E0FD30A103430501C217
:0C078700A07F0A1207980CBC08E8AF0520
:010793002243
:030829001206E9CB
:10082C00120794A2A1E433FDC2A07F0A120798AF6D
:01083C0005B6
:01083D002298
:1007FC00C2A0EF24FF92A17F0A120798120794C29D
:08080C00A0D2A17F0A020798A7
:1007AE00AB071208517F901208297F40120829AF1B
:0A07BE00031206E912082C02086F6E
:10036300E4FFC2C4D2B4D2B5D2C2D2B3D2B2D2B1F4
:10037300D2B020B0027F0720B1027F0620B2027FF5
:100383000520B3027F04C2C4D2B4D2B5D2C2D2B361
:10039300D2B2D2B1D2B020B0027F0720B1027F0621
:1003A30020B2027F0520B3027F04C2C2D2B4D2B509
:1003B300D2C4D2B3D2B2D2B1D2B020B0027F0B201A
:1003C300B1027F0A20B2027F0920B3027F08C2B5BF
:1003D300D2B4D2C4D2C2D2B3D2B2D2B1D2B020B08C
:1003E300027F0F20B1027F0E20B2027F0D20B302E5
:1003F3007F0CC2B4D2B5D2C4D2C2D2B3D2B2D2B1BC
:10040300D2B020B0027F1320B1027F1220B2027F4C
:060413001120B3027F106E
:0104190022C0
:0605BB00010B00010CFF22
:10068900ED6010A8077401088002C333D8FCF45246
:100699000B800DA8077401088002C333D8FC420BF4
:1006A900E50B650C600B850B807F0412061A850B20
:0106B9000C34
:0106BA00221D
:1005C1001249C0F9A4B0999282F880908883C6A19B
:0E05D100868EFF8C085B01020408102040801B
:100653008F088D098B0A7580FF7F0712061AAF0872
:10066300A8077401088002C333D8FCF5807F061203
:10067300061A74492509F8E6F580E50A60035380F4
:060683007F7F0702061A4A
:0407C8007F057E002B
:1007CC00EF1FAA0670011E4A600BE4FDEDC3940CEA
:0507DC0050EE0D80F756
:0107E10022F5
:02073C00A9070B
:10073E00E4FBC294E91392941207C8D294E9C3134E
:0C074E00F90BBB08ED7F057E000207CC14
:1007E200E4FBC294ECC313FCD29430940343048020
:0907F2001207C80BBB08EBAF04B1
:0107FB0022DB
:10071500C201D2947F0C7E001207CCC2947F507E1A
:10072500001207CCD2947F0A7E001207CCA29492C5
:06073500011207C8A20139
:01073B00229B
:1005E0001207157FCC12073C7F4412073C120715F7
:1005F0007FCC12073C7FBE12073C1207E2A907120C
:1006000007E2EFFEE9FFFDAC06E4120119E4FBFA94
:0A06100079C8784012000E02015272
:10061A00EF24FB601414601B14602224037026E587
:10062A00A0541F4480F5A0801CE5A0541F44A0F5E7
:10063A00A08012E5A0541F44C0F5A08008E5A0548C
:09064A001F44E0F5A053A01F229B
:0F0860007580FF7F0412061AE4F5800F02061A56
:10000E00EC4D6011E8497017ED33EC3304600DE4EC
:10001E00FCFFFEFD22E933E8330470F80201BE1244
:10002E00018958046009E4CC248150062850090245
:10003E0001C82840030201C5C0E0EB4A7044B980F4
:10004E0006D0E0FB0201B4EF4E701CBD8008EBFF42
:10005E00EAFEE9FD80EBE98DF0A4FEE5F00200F783
:10006E00E9CDF9EAFEEBFFEF89F0A4FCE5F0CE89CD
:10007E00F0A42EFFE435F0CD89F0A42DFEE435F08A
:10008E008067EF4E7005BD80D780C3EF8BF0A4ACB8
:10009E00F0EE8BF0A42CFCE435F0F8EF8AF0A42CF3
:1000AE00E5F038FCE433CB8DF0A42CFCE5F03BF806
:1000BE00EE8AF0A42CFCE5F038F8E433CF89F0A4F6
:1000CE002CFCE5F038CF3400CE89F0A42FFFE5F0FC
:1000DE003EFEE433C98DF0A42EFEE5F039CD8AF054
:1000EE00A42FFFE5F03EFEE43DFD33D0E0FB5007CC
:1000FE000BBB000F0201C8EC2CFCEF33FFEE33FEFE
:06010E00ED33FD0201A02B
:1001140075F020800E75F010800575F0087D007E66
:10012400007F003392D530D50312023AEC334010ED
:10013400EF33FFEE33FEED33FDEC33FCD5F0ED226F
:0E014400E5F0247EA2D513CC92E7CDCEFF22AB
:10015200EDD2E7CD33EC3392D524814006E4FFFEA5
:10016200FDFC22FCE4CFCECDCC24E0501174FF8004
:10017200EDC3CC13CCCD13CDCE13CECF13CF0470A1
:07018200F030D5DE02023A65
:10018900E9D2E7C933E833F892D5EDD2E7CD33ECBC
:0701990033FC5002B2D52235
:1001A000EC30E7100FBF000C0EBE00080DBD0004C0
:1001B0000BEB6014A2D5EB13FCED92E7FD2274FF6C
:1001C000FCFDFEFF22E480F8A2D574FF13FC7D80C5
:0301D000E480EFD9
:0300000002041ADD
:0C041A00787FE4F6D8FD75816202046171
:1001D300EF8DF0A4A8F0CF8CF0A428CE8DF0A42E40
:0201E300FE22FA
:1001E500BC000BBE0029EF8DF084FFADF022E4CCFE
:1001F500F875F008EF2FFFEE33FEEC33FCEE9DECC7
:10020500984005FCEE9DFE0FD5F0E9E4CEFD22ED0C
:10021500F8F5F0EE8420D21CFEADF075F008EF2F56
:10022500FFED33FD4007985006D5F0F222C398FD47
:050235000FD5F0EA22E4
:0E023A00C3E49FFFE49EFEE49DFDE49CFC22D5
:1004260002075AE493A3F8E493A34003F68001F28B
:1004360008DFF48029E493A3F85407240CC8C333D7
:10044600C4540F4420C8834004F456800146F6DFA6
:10045600E4800B0102040810204080900595E47E9C
:10046600019360BCA3FF543F30E509541FFEE4939B
:10047600A360010ECF54C025E060A840B8E493A362
:10048600FAE493A3F8E493A3C8C582C8CAC583CA8D
:10049600F0A3C8C582C8CAC583CADFE9DEE780BE45
:0105DF00001B
:00000001FF
