:1006D70008251010101010101010082F000000002F
:1006E70000000000081B0000000000000000010FD0
:0A06F7000001230001180101240096
:1008F300E4FF74252FF87610742F2FF8E4F60FBF5A
:0209030008F0FA
:0109050022CF
:10053300E516451560030205C3F515751601120886
:10054300808F17E5176513FF5517F510E517F45F4F
:10055300F537851713E51024FB602A146034146003
:1005630039240370411208F3E50F7005750F0180FC
:1005730035E50FB40105750F02802BE50F6402709A
:1005830025F50F80211208F3E50FB402196323FF49
:1005930080141208F385140E800C1208F385110CD5
:1005A30085120D752401E53724F970141208F3C37D
:1005B300E52E94E8E52D940340036318FFE4F52446
:0105C3002215
:10001E00E53945386003020333F538753901E50FCC
:10002E00600302018775250FAE11AF12FCFD7B40F8
:10003E007A42790FF8120728EC4D4E4F6013AE112D
:10004E00AF12E4FCFD7B407A42790FF8120728804C
:10005E00027F108F26AE11AF12E4FCFD7B407A4278
:10006E00790FF8120728AC00AD01AE02AF037BA0EA
:10007E007A8679017800120728EC4D4E4F6026AE35
:10008E0011AF12E4FCFD7B407A42790FF81207287B
:10009E00AC00AD01AE02AF037BA07A867901780089
:1000AE0012072880027F108F27AE11AF12E4FCFDDD
:1000BE007BA07A867901F8120728AC00AD01AE025A
:1000CE00AF03E47B107A27F9F8120728EC4D4E4F58
:1000DE006025AE11AF12E4FCFD7BA07A867901F8A3
:1000EE00120728AC00AD01AE02AF03E47B107A27F5
:1000FE00F9F812072880027F108F28AE11AF127CFC
:10010E00277D101203347E037FE8CFCDCFCECCCE29
:10011E00120334EF4E600280027F108F29AE11AFB2
:10012E00127C037DE81203347E007F64CFCDCFCEE8
:10013E00CCCE120334EF4E600280027F108F2AAEB7
:10014E0011AF127C007D641203347E007F0ACFCD86
:10015E00CFCECCCE120334EF4E600280027F108FD2
:10016E002BAE11AF127C007D0A120334ED4C6004ED
:10017E00AF0580027F108F2C22E50F640160030211
:10018E0002E4752511AE0AAF0BFCFD7B407A427975
:10019E000FF8120728EC4D4E4F6013AE0AAF0BE46A
:1001AE00FCFD7B407A42790FF812072880027F10FF
:1001BE008F26AE0AAF0BE4FCFD7B407A42790FF836
:1001CE00120728AC00AD01AE02AF037BA07A867990
:1001DE00017800120728EC4D4E4F6026AE0AAF0B89
:1001EE00E4FCFD7B407A42790FF8120728AC00AD93
:1001FE0001AE02AF037BA07A867901780012072840
:10020E0080027F108F27AE0AAF0BE4FCFD7BA07A35
:10021E00867901F8120728AC00AD01AE02AF03E4F7
:10022E007B107A27F9F8120728EC4D4E4F6025AE59
:10023E000AAF0BE4FCFD7BA07A867901F812072841
:10024E00AC00AD01AE02AF03E47B107A27F9F812D1
:10025E00072880027F108F28AE0AAF0B7C277D10F7
:10026E001203347E037FE8CFCDCFCECCCE12033433
:10027E00EF4E600280027F108F29AE0AAF0B7C0317
:10028E007DE81203347E007F64CFCDCFCECCCE126C
:10029E000334EF4E600280027F108F2AAE0AAF0B3E
:1002AE007C007D641203347E007F0ACFCDCFCECC8E
:1002BE00CE120334EF4E600280027F108F2BAE0AF7
:1002CE00AF0B7C007D0A120334ED4C6004AF058049
:1002DE00027F108F2C22E50F64027049752512756E
:1002EE002613E52360047F0380027F018F27AE3A39
:1002FE00AF3B7C007D641203348F2AAE3AAF3B7C59
:10030E00007D641203347E007F0ACFCDCFCECCCEDB
:10031E001203348F2BAE3AAF3B7C007D0A120334AE
:06032E008D2C7534012244
:10065000E523F460047F0180027F031208398F08CC
:10066000E50875F064A4FFAEF07C007DFF12033452
:10067000EF75F005A485F03AF53BE514D3950E40EF
:1006800008E51860047F0180027F008F1BD3E5120C
:10069000950DE511950C4008E51860047F01800276
:1006A0007F008F1CE50F7008E51860047F01800251
:1006B0007F008F1DE50FB40108E51860047F0180FD
:1006C000027F008F1EE50FB40208E51860047F0169
:0706D00080027F008F1F2252
:03001B0002045785
:10045700C0E0C0F0C083C082C0D075D000C000C06B
:1004670001C002C003C004C005C006C0070516E5E9
:100477001670020515640A45157004F515F516057D
:1004870039E5397002053864C845387004F538F520
:10049700390509E509B40803750900051AE51A7055
:1004A70002051964E87004E5196403702AF519F563
:1004B7001AAF8CEFAD8AF511EDF512AE11FBAA0656
:1004C700E4F9F87F407E427D0FFC1207288E0A8FE1
:1004D7000B758C00758A00E5246017052EE52E70D4
:1004E70002052DC394E8E52D94034006752D037589
:1004F7002EE974252509F8E6FD742F2509F8E6FB92
:10050700AF091207A5741B2509F8E6FDAF09120705
:10051700DBD007D006D005D004D003D002D001D05D
:0C05270000D0D0D082D083D0F0D0E032E1
:1008B500538EBF53890F758B18758DFCC28FD28EE1
:0508C500D2ABD2AF220E
:10090600538E7F5389F0438905E4F58AF58CC28DB1
:03091600D28C225E
:1008DF001209281209061208B512065012001E122C
:0408EF00053380F558
:04089B00D2A07F0A5E
:10089F00000000000000000000000000000000AE9B
:0608AF00071FEE70EB22B2
:0F091900D2A112089BC2A17F0A12089FC2A0227E
:0C093700C2A112089BD2A17F0A02089FF7
:02080D00AD0735
:10080F00E4FCC2A07F0A12089FED30E704D2A1805A
:10081F0002C2A17F0A12089FD2A0ED25E0FD7F0A38
:09082F0012089F0CBC08DBC2A0FA
:01083800229D
:10086300E4FC12089BED25E0FD30A103430501C222
:0C087300A07F0A12089F0CBC08E8AF052B
:01087F002256
:0308CA0012080D04
:1008CD0012089BA2A1E433FDC2A07F0A12089FAFBC
:0108DD000515
:0108DE0022F7
:10000300C2A0EF24FF92A17F0A12089F12089BC28D
:08001300A0D2A17F0A02089FA0
:02083900AB070B
:10083B001209197F901208CAAF031208CA120919BC
:10084B007F9112080D1208CD120863AD077F0112BC
:07085B000003120937AF058D
:010862002273
:1008800020B0037F072220B1037F062220B2037F1E
:0B089000052220B3037F04227F00221A
:06070100015B00015CFF3A
:1007DB00ED6010A8077401088002C333D8FCF452F3
:1007EB005B800DA8077401088002C333D8FC425B01
:1007FB00E55B655C600B855B807F0412076C855B3A
:01080B005C90
:01080C0022C9
:10070700143CC0F9A4B0999282F880908883C6A15E
:10071700868EFFC8C1BF0850010204081020408020
:1007A5008F588D598B5A7580FF7F0712076CAF588C
:1007B500A8077401088002C333D8FCF5807F0612B0
:1007C500076C743C2559F8E6F580E55A60035380BB
:0607D5007F7F0702076CA4
:10076C00EF24FB601414601B14602224037026E534
:10077C00A0541F4480F5A0801CE5A0541F44A0F594
:10078C00A08012E5A0541F44C0F5A08008E5A05439
:09079C001F44E0F5A053A01F2248
:0F0928007580FF7F0412076CE4F5800F02076CE7
:030000000205C432
:0C05C400787FE4F6D8FD75815C02060B20
:10033400BC000BBE0029EF8DF084FFADF022E4CCAD
:10034400F875F008EF2FFFEE33FEEC33FCEE9DEC76
:10035400984005FCEE9DFE0FD5F0E9E4CEFD22EDBC
:10036400F8F5F0EE8420D21CFEADF075F008EF2F06
:10037400FFED33FD4007985006D5F0F222C398FDF7
:050384000FD5F0EA2294
:10072800C2D5E830E70FB2D5E4C39BFBE49AFAE4FC
:1007380099F9E498F8EC30E717B2D512075E12037E
:10074800C5E4C39BFBE49AFAE499F9E498F88003BA
:100758001203C530D50DE4C39FFFE49EFEE49DFD62
:04076800E49CFC22EF
:1005D0000208DFE493A3F8E493A34003F68001F25A
:1005E00008DFF48029E493A3F85407240CC8C3332C
:1005F000C4540F4420C8834004F456800146F6DFFB
:10060000E4800B01020408102040809006D7E47EAD
:10061000019360BCA3FF543F30E509541FFEE493EF
:10062000A360010ECF54C025E060A840B8E493A3B6
:10063000FAE493A3F8E493A3C8C582C8CAC583CAE1
:10064000F0A3C8C582C8CAC583CADFE9DEE780BE99
:0107270000D1
:1003890075F008758200EF2FFFEE33FECD33CDCC2B
:1003990033CCC58233C5829BED9AEC99E5829840AE
:1003A9000CF582EE9BFEED9AFDEC99FC0FD5F0D68B
:1003B900E4CEFBE4CDFAE4CCF9A88222B800C1B9B5
:1003C9000059BA002DEC8BF084CFCECDFCE5F0CBF3
:1003D900F97818EF2FFFEE33FEED33FDEC33FCEB2C
:1003E90033FB10D703994004EB99FB0FD8E5E4F9E7
:1003F900FA227818EF2FFFEE33FEED33FDEC33FCD4
:10040900C933C910D7059BE99A4007EC9BFCE99AC7
:10041900F90FD8E0E4C9FAE4CCFB2275F010EF2F0C
:10042900FFEE33FEED33FDCC33CCC833C810D7070C
:100439009BEC9AE899400AED9BFDEC9AFCE899F847
:0E0449000FD5F0DAE4CDFBE4CCFAE4C8F922DA
:00000001FF
