:100A7B00083A10101010101010100844000000005D
:100A8B0000000000083200000000000000000121FF
:100A9B005A012528012306012C00012D00C101C19B
:050AAB0000C103C102BF
:100D0500E4FF743A2FF8761074442FF8E4F60FBF19
:020D150008F0E4
:010D170022B9
:10079400E52F6003020885752F01120C21E51F6FF8
:1007A400FE5FFDEFF45EF51E8F1FAF05EF24FB60C7
:1007B4002414603914700302083D24036003020802
:1007C40085120D05052C532C03E52C6403600302EC
:1007D4000885F52D22120D05E52C6403600302083B
:1007E40085052DE52D75F0038485F02D22120D0568
:1007F400E52C6403703AE52D700F74052521F5216D
:10080400D39478407C75210A22E52DB4010F740A33
:100814002525F525D3943C406875250A22E52D64E9
:1008240002705E0523E523D3940C40557523012201
:10083400E52C6402704BB20122120D05E52C640311
:100844007039E52D700F74FB2521F521C3940A50EE
:100854003075217822E52DB4010F74F62525F52590
:10086400C3940A501C75253C22E52DB402131523AC
:10087400E523C39401500A75230C22E52C7002B2BF
:010884000073
:010885002250
:10006600E5434542600302048BF542754301E52CE6
:10007600700AD28C5389F0438905802DE52CB40192
:10008600187F03120BDAEF75F064A4FFAEF07C0064
:100096007DFF1206638F2E8010E52CB4020BC28FF3
:1000A600C28C120AD28E2A8F2BE52EC395255005B7
:1000B600751E338029E52ED394504005751EFF80AA
:1000C6001DC374509525FDE49400FC7E007F041248
:1000D6000663C3E52E95258FF0A42433F51EAF1EC7
:1000E600120CDCE52375F00AA4FFD3E52B9FE52A65
:1000F60095F04006E52404FF8002AF248F24AD244A
:10010600E4FF120CB0AF217E007C037DE81206519D
:10011600D3E5299FE5289E4003D38001C39202E5DB
:100126002C14700302036714700302037E14700319
:100136000204272403600302048B753A0F30000380
:100146000202C7AE28AF29E4FCFD7BA07A867901BE
:10015600F812001EEC4D4E4F6013AE28AF29E4FC9A
:10016600FD7BA07A867901F812001E80027F108F2F
:100176003CE53C64106027AE28AF29E4FCFD7BA07B
:100186007A867901F812001EAC00AD01AE02AF030B
:10019600E47B107A27F9F812001E8F3D8058AE28AE
:1001A600AF29E4FCFD7BA07A867901F812001EAC2B
:1001B60000AD01AE02AF03E47B107A27F9F8120016
:1001C6001EEC4D4E4F6025AE28AF29E4FCFD7BA00A
:1001D6007A867901F812001EAC00AD01AE02AF03BB
:1001E600E47B107A27F9F812001E80027F108F3DFB
:1001F600E53D6410601CAE28AF297C277D101206F1
:10020600637E037FE8CFCDCFCECCCE1206638F3E82
:100216008028AE28AF297C277D101206637E037FD7
:10022600E8CFCDCFCECCCE120663EF4E6002800271
:100236007F108F3EE53E6410601CAE28AF297C031C
:100246007DE81206637E007F64CFCDCFCECCCE1282
:1002560006638F3F8028AE28AF297C037DE812060F
:10026600637E037FE8CFCDCFCECCCE120663EF4EB2
:10027600600280027F108F3FE53F6410601AAE284F
:10028600AF297C007D641206637E007F0ACFCDCF46
:10029600CECCCE1206638020AE28AF297C037DE843
:1002A6001206637E037FE8CFCDCFCECCCE12066397
:1002B600EF4E600280027F108F40AE28AF29020405
:1002C6001DC3E52994E8E5289403404AAE28AF29E2
:1002D600E4FCFD7BA07A867901F812001EEC4D4EF7
:1002E6004F6013AE28AF29E4FCFD7BA07A86790126
:1002F600F812001E80027F108F3FAE28AF297C27A0
:100306007D101206637E037FE8CFCDCFCECCCE1212
:1003160006638F408003E4F540AE28AF297C007D5C
:1003260064120663D3ED9432EC9400AE28AF297CB8
:10033600037DE840171206637E007F64CFCDCFCEE3
:10034600CCCE120663EF04F5410204881206637EE2
:10035600007F64CFCDCFCECCCE1206638F41020490
:1003660088753A11E52E75F00A84FF600280027FD7
:10037600108F40E52E02046A753A0A300138AE2A1B
:10038600AF2B7C007D641206638F3FAE2AAF2B7CB9
:10039600007D641206637E007F0ACFCDCFCECCCE21
:1003A6001206638F40AE2AAF2B7C007D0A120663CD
:1003B6008D4175490122AE2AAF2B7C007D64120661
:1003C60063EF4E600280027F108F3FE53F6410604E
:1003D60020AE2AAF2B7C007D641206637E007F0A66
:1003E600CFCDCFCECCCE1206638F40AE2AAF2B80B8
:1003F60026AE2AAF2B7C007D641206637E007F0A40
:10040600CFCDCFCECCCE120663EF4E600280027FF8
:10041600108F40AE2AAF2B7C007D0A1206638D41F9
:1004260022753A12E52D04F53BE52D7028E5217578
:10043600F06484FF600280027F108F3FE52175F033
:100446006484E5F075F00A84F540E52175F00A84C8
:1004560085F041802DE52DB40112E52575F00A845D
:10046600F540E52575F00A8485F04122E52DB402B4
:1004760014E52375F00A84F540E52375F00A8485B2
:05048600F041754A0180
:01048B00224E
:10093E00E52375F00AA4FBAAF0D3E52B9BE52A9AD2
:10094E004003D38001C39203E52C64037030E52D80
:10095E007006A20433FF80027F008F32E52DB401B2
:10096E0007A204E433FF80027F008F33E52DB4022B
:10097E0007A204E433FF80027F008F348026E52C2B
:10098E0070047F0180027F008F32E52CB401047F5A
:10099E000180027F008F33E52CB402047F018002B8
:1009AE007F008F34AF217E007C037DE8120651D389
:1009BE00E5299FE5289E40047F0180027F008F3548
:1009CE00E52ED3952540047F0180027F008F36D31C
:1009DE00E52B9BE52A9A40047F0180027F008F372A
:0109EE0022E6
:03001B0002088652
:10088600C0E0C0F0C083C082C0D075D000C000C038
:1008960001C002C003C004C005C006C007052FE59D
:1008A6002FB40A03752F000543E543700205426421
:1008B600C845427004F542F543054CE54CB40803BF
:1008C600754C000522E522B46405752200B20405C4
:1008D60031E53170020530FFAE30BE0319BFE816B0
:1008E600753000753100AF8CEFAD8AF528EDF5292E
:1008F600758C00758A00743A254CF8E6FD7444251B
:100906004CF8E6FBAF4C120B467432254CF8E6FD6C
:10091600AF4C120B7CA203E433FF120C3FD007D07E
:1009260006D005D004D003D002D001D000D0D0D05C
:0809360082D083D0F0D0E03242
:100CC700538EBF53890F758B18758DFCC28FD28ECB
:050CD700D2ABD2AF22F8
:0A0D6300E4F58AF58CC28DC28C22E3
:03006300020BFF8E
:100BFF00C0E00527E5277002052664084526700F1B
:100C0F00F526F5273002057580208003758000D00A
:020C1F00E032C1
:100D2900538EFB75D79C75D6FF438E1043AF0422B3
:100CF100120D39120CC7120D291207941200661237
:040D0100093E80F532
:100C210020B0047F07801320B1047F06800C20B21E
:0D0C3100047F05800520B3027F0475B0FF2D
:010C3E002293
:0C0AB000014D00014EFF014F000150FFFE
:100B7C00ED6010A8077401088002C333D8FCF4524E
:100B8C004D800DA8077401088002C333D8FC424D78
:100B9C00E54D654E600B854D807F04120B0D854D28
:010BAC004EFA
:010BAD002225
:100C3F00EF6005434F108003534FEFE54F65506052
:0C0C4F000B854F807F05120B0D854F5068
:010C5B002276
:100ABC001308C0F9A4B0999282F880908883C6A1DB
:050ACC00868EFF898CFD
:100B46008F1B8D1C8B1D7580FF7F07120B0DAF1B36
:100B5600A8077401088002C333D8FCF5807F06120B
:100B66000B0D7408251CF8E6F580E51D600353801F
:060B76007F7F07020B0D5A
:100B0D00EF24FB601414601B14602224037026E58F
:100B1D00A0541F4480F5A0801CE5A0541F44A0F5EF
:100B2D00A08012E5A0541F44C0F5A08008E5A05494
:090B3D001F44E0F5A053A01F22A3
:0F0D39007580FF7F04120B0DE4F5800F020B0D88
:060D6D0000007F21DFFE03
:010D7300225D
:100D1800E4FED290120D6DC290120D6D0EBE08F257
:010D280022A8
:100AD2005389F0E4F58AF58C120D18D28C208D031F
:100AE2002091FAC28C208D1CAF8CEFFEAD8AEDFFF7
:100AF200AC06E41205977B967A43798B783C120414
:0A0B02008C0205D0C28D7E037FE750
:010B0C0022C6
:040C9600D2A07F0A5F
:100C9A00000000000000000000000000000000AE9C
:060CAA00071FEE70EB22B3
:0F0D4800D2A1120C96C2A17F0A120C9AC2A0224D
:0C0D5700C2A1120C96D2A17F0A020C9AD5
:020BAE00AD0791
:100BB000E4FCC2A07F0A120C9AED30E704D2A180B7
:100BC00002C2A17F0A120C9AD2A0ED25E0FD7F0A95
:090BD000120C9A0CBC08DBC2A057
:010BD90022F9
:100C5C00E4FC120C96ED25E0FD30A103430501C226
:0C0C6C00A07F0A120C9A0CBC08E8AF052F
:010C78002259
:0B0C7900120BAE120C84AF03120BAE86
:100C8400120C96A2A1E433FDC2A07F0A120C9AAF03
:010C9400055A
:010C9500223C
:10000300C2A0EF24FF92A17F0A120C9A120C96C28F
:08001300A0D2A17F0A020C9AA1
:020BDA00AB0767
:100BDC00120D487F90120C79120D487F91120BAEBA
:100BEC00120C84120C5CAD077F01120003120D571E
:020BFC00AF0543
:010BFE0022D4
:100CB000AB05AA07120D487FA0120BAE120C84AF31
:070CC00002120C79020D572E
:100CDC00AB07120D487F90120BAE120C847F4012A2
:050CEC000C79020D5718
:10048C00EC4D6011E8497017ED33EC3304600DE46A
:10049C00FCFFFEFD22E933E8330470F802063C123F
:1004AC00060758046009E4CC248150062850090240
:1004BC000646284003020643C0E0EB4A7044B9806C
:1004CC0006D0E0FB020632EF4E701CBD8008EBFF3D
:1004DC00EAFEE9FD80EBE98DF0A4FEE5F00205757E
:1004EC00E9CDF9EAFEEBFFEF89F0A4FCE5F0CE894B
:1004FC00F0A42EFFE435F0CD89F0A42DFEE435F008
:10050C008067EF4E7005BD80D780C3EF8BF0A4AC35
:10051C00F0EE8BF0A42CFCE435F0F8EF8AF0A42C70
:10052C00E5F038FCE433CB8DF0A42CFCE5F03BF883
:10053C00EE8AF0A42CFCE5F038F8E433CF89F0A473
:10054C002CFCE5F038CF3400CE89F0A42FFFE5F079
:10055C003EFEE433C98DF0A42EFEE5F039CD8AF0D1
:10056C00A42FFFE5F03EFEE43DFD33D0E0FB500749
:10057C000BBB000F020646EC2CFCEF33FFEE33FEF8
:06058C00ED33FD02061E26
:1005920075F020800E75F010800575F0087D007EE4
:1005A200007F003392D530D5031206B8EC334010E9
:1005B200EF33FFEE33FEED33FDEC33FCD5F0ED22ED
:0E05C200E5F0247EA2D513CC92E7CDCEFF2229
:1005D000EDD2E7CD33EC3392D524814006E4FFFE23
:1005E000FDFC22FCE4CFCECDCC24E0501174FF8082
:1005F000EDC3CC13CCCD13CDCE13CECF13CF04701F
:07060000F030D5DE0206B860
:10060700E9D2E7C933E833F892D5EDD2E7CD33EC39
:0706170033FC5002B2D522B2
:10061E00EC30E7100FBF000C0EBE00080DBD00043D
:10062E000BEB6014A2D5EB13FCED92E7FD2274FFE9
:10063E00FCFDFEFF22E480F8A2D574FF13FC7D8042
:03064E00E480EF56
:030000000209EF03
:0C09EF00787FE4F6D8FD758150020A36CE
:10065100EF8DF0A4A8F0CF8CF0A428CE8DF0A42EBD
:02066100FE2277
:10066300BC000BBE0029EF8DF084FFADF022E4CC7B
:10067300F875F008EF2FFFEE33FEEC33FCEE9DEC44
:10068300984005FCEE9DFE0FD5F0E9E4CEFD22ED8A
:10069300F8F5F0EE8420D21CFEADF075F008EF2FD4
:1006A300FFED33FD4007985006D5F0F222C398FDC5
:0506B3000FD5F0EA2262
:10001E00C2D5E830E70FB2D5E4C39BFBE49AFAE40D
:10002E0099F9E498F8EC30E717B2D512005412079C
:10003E0002E4C39BFBE49AFAE499F9E498F880038E
:10004E0012070230D50DE4C39FFFE49EFEE49DFD32
:04005E00E49CFC2200
:0E06B800C3E49FFFE49EFEE49DFDE49CFC2253
:1009FB00020CF1E493A3F8E493A34003F68001F215
:100A0B0008DFF48029E493A3F85407240CC8C333FC
:100A1B00C4540F4420C8834004F456800146F6DFCB
:100A2B00E4800B0102040810204080900A7BE47ED6
:100A3B00019360BCA3FF543F30E509541FFEE493C0
:100A4B00A360010ECF54C025E060A840B8E493A387
:100A5B00FAE493A3F8E493A3C8C582C8CAC583CAB2
:100A6B00F0A3C8C582C8CAC583CADFE9DEE780BE6A
:010AD1000024
:1006C60075F008758200EF2FFFEE33FECD33CDCCEB
:1006D60033CCC58233C5829BED9AEC99E58298406E
:1006E6000CF582EE9BFEED9AFDEC99FC0FD5F0D64B
:1006F600E4CEFBE4CDFAE4CCF9A88222B800C1B975
:100706000059BA002DEC8BF084CFCECDFCE5F0CBB2
:10071600F97818EF2FFFEE33FEED33FDEC33FCEBEB
:1007260033FB10D703994004EB99FB0FD8E5E4F9A6
:10073600FA227818EF2FFFEE33FEED33FDEC33FC93
:10074600C933C910D7059BE99A4007EC9BFCE99A87
:10075600F90FD8E0E4C9FAE4CCFB2275F010EF2FCC
:10076600FFEE33FEED33FDCC33CCC833C810D707CC
:100776009BEC9AE899400AED9BFDEC9AFCE899F807
:0E0786000FD5F0DAE4CDFBE4CCFAE4C8F9229A
:00000001FF
