:10078600080C141414141414141408240000000083
:10079600000000000818000000000000000001161C
:1007A6000001142D010B05012100011700010800AD
:1007B60001200002220000012C000115010209009F
:0107C6000032
:1005F60012073AEF24FE6032146057146058240341
:100606007075E5166402706FE517600FE50B24FB45
:10061600F50BC394055060750B3222E51424FBF5E7
:1006260014C39405505175143222E51664027047BE
:10063600E517600FE50B2405F50BD39432403875AA
:100646000B0522E5142405F514D3943240297514BC
:10065600052263170122E516700475160122E516B8
:10066600B40109751602E4F517F51522E516B4026C
:0706760006E4F516751501FD
:01067D00225A
:10098800E4FF740C2FF8761474242FF8E4F6741826
:080998002FF8E4F60FBF08EA96
:0109A0002234
:10028C00E4FBFA7F031208EBEF75F064A4FFAEF009
:10029C007C007DFF120229EF75F005A4AAF0FBE5A6
:1002AC00156026E50B75F00AA4FFD3EB9FEA95F0D9
:1002BC004013E51475F00AA4FFC3EB9FEA95F050C8
:1002CC00047F0180027F008F20852021E51670407D
:1002DC00120988750C107C007D64AF03AE0212020B
:1002EC00298F117C007D64AF03AE021202297E00BF
:1002FC007F0ACFCDCFCECCCE1202298F12AE02AF59
:10030C00037C007D0A1202298D137529010203CE8C
:10031C00E516B40230120988750C11E51475F00A53
:10032C0084F50FE51475F00A8485F010752701E546
:10033C000B75F00A84F512E50B75F00A8485F01341
:10034C00752A01807DE51664017077120988750C99
:10035C0013E520700B75110A75120A75130A806269
:10036C00D3E5239463E52294004024AE22AF237C92
:10037C00007D641202298F11AE22AF237C007D64B4
:10038C001202297E007F0ACFCDCFCECCCE8016D3E1
:10039C00E5239409E5229400401F751114AE22AF99
:1003AC00237C007D0A1202298F12AE22AF237C001F
:1003BC007D0A1202298D138009751114751214858A
:1003CC0023137536007537007538247B007A007955
:0403DC000C0203E02C
:10084B00E51670047F0180027F008F18E516B40156
:10085B00047F0180027F008F19E516B402047F012B
:10086B0080027F008F1AE5206004AF2180027F0099
:0B087B008F1F7B007A0079180207CB6A
:03001B0002067E5C
:10067E00C0E0C0F0C083C082C0D075D000C000C042
:10068E0001C002C003C004C005C006C0070508E5CE
:10069E0008B49606750800632101E520601E050A60
:1006AE00E50A70020509D394F4E5099401400D752D
:1006BE000900750A001206E58E228F23D007D00698
:1006CE00D005D004D003D002D001D000D0D0D0823B
:0706DE00D083D0F0D0E03220
:1009BA00538EBF53890F758B18758DFCC28FD28EDB
:0509CA00D2ABD2AF2208
:100A0D00538EBF5389F0758A50758CFBC28DC28C85
:030A1D00C2A92249
:1009F900120A421209BA120A0D1205F612084B120E
:040A0900028C80F5E6
:0307C700014101EC
:10073A00E5416401703130B00930B10630B20320AE
:10074A00B3257F147E001209A1E4F54120B0037F8E
:10075A00012220B1037F022220B2037F032220B3A9
:10076A00037F04227F002230B00F30B10C30B2096F
:0C077A0030B3067541017F00227F002291
:1004D200E4F540D2B4D2B5D2C2D2C4C2B3C2B2C21F
:1004E200B1C2B0E5416401706A30C40930C206305D
:1004F200B50320B45E7F147E001209A120C40575E5
:100502004001801B20C205754002801320B505758D
:100512004003800B20B40575400480037F0022E471
:10052200F541C2B4C2B5C2C2C2C4D2B3D2B2D2B110
:10053200D2B020B003AF402220B106E5402404FF30
:100542002220B206E5402408FF2220B318E5402409
:100552000CFF2230C40F30C20C30B50930B406751E
:0705620041017F00227F0030
:01056900226F
:10088600EF24FB601414601B14602224037026E519
:10089600A0541F4480F5A0801CE5A0541F44A0F579
:1008A600A08012E5A0541F44C0F5A08008E5A0541E
:0908B6001F44E0F5A053A01F222D
:0F0A42007580FF7F04120886E4F5800F02088696
:100A2000EF1FAC0670011E4C60060000000080F055
:010A300022A3
:0A09A100EF1FAC0670011E4C600E43
:0C09AB00753C0C753DA9D53DFDD53CFA0E
:0309B70080E822B3
:1009CF00C0F9A4B0999282F880908883C6A1868ED0
:0509DF00C18CBFC3FF45
:10080D008F398D3A8B3B7580FF7F07120886E5394E
:10081D0014FFF87401088002C333D8FCF5807F06FD
:10082D00120886E53A9009CF93F580E53B600353B6
:0E083D00807F7F071208867F017E000209A1DE
:1003E0008B338A3489351201E3FDAB36AA37A9383D
:1003F0001201E3FB7F0112080DAB33AA34A935903B
:1004000000011201FCFDAB36AA37A9389000011299
:1004100001FCFB7F0212080DAB33AA34A935900012
:10042000021201FCFDAB36AA37A938900002120176
:10043000FCFB7F0312080DAB33AA34A935900003EF
:100440001201FCFDAB36AA37A9389000031201FC5B
:10045000FB7F0412080DAB33AA34A93590000412B7
:1004600001FCFDAB36AA37A9389000041201FCFB51
:100470007F0512080DAB33AA34A93590000512018F
:10048000FCFDAB36AA37A9389000051201FCFB7FB2
:100490000612080DAB33AA34A9359000061201FCF0
:1004A000FDAB36AA37A9389000061201FCFB7F0786
:1004B00012080DAB33AA34A9359000071201FCFDD8
:1004C000AB36AA37A9389000071201FCFB7F08025F
:0204D000080D15
:0607CB008B338A348935EE
:1007D100E4FFAB33AA34A9358F827583001201FC83
:1007E100B40110A8077401088002C333D8FCF45285
:1007F10036800DA8077401088002C333D8FC423645
:0C0801000FBF08CE8536807F04020886F9
:04096E00D2A07F058F
:10097200000000000000000000000000000000AEC7
:06098200071FEE70EB22DE
:0F0A5100D2A112096EC2A17F05120972C2A022A2
:0C0A6000C2A112096ED2A17F050209722A
:0208BF00AD0783
:1008C100E4FCC2A07F05120972ED30E704D2A180D9
:1008D10002C2A17F05120972D2A0ED25E0FD7F05BC
:0908E1001209720CBC08DBC2A074
:0108EA0022EB
:10093400E4FC12096EED25E0FD30A103430501C27C
:0C094400A07F051209720CBC08E8AF058A
:010950002284
:0B0951001208BF12095CAF031208BFC0
:10095C0012096EA2A1E433FDC2A07F05120972AF89
:01096C000585
:01096D002267
:10000300C2A0EF24FF92A17F0512097212096EC2EA
:08001300A0D2A17F05020972D1
:0208EB00AB0759
:1008ED00120A517F90120951120A60120A517F911A
:1008FD001208BF12095C120934AD077F0112000303
:05090D00120A60AF05B5
:0109120022C2
:1009E400AB07120A517F901208BF12095C7F4012B4
:0509F4000951020A6038
:100A310000007542241542E542600512028C80F5E2
:010A41002292
:10091300E4F53EF53FD290120A31C290120A310536
:100923003FE53F7002053EC39408E53E940040E571
:0109330022A1
:1006E500E4F52DF52EF52FF530F531F532F58AF5D2
:1006F5008C120000D28C309103308DFAC28C208D83
:1007050024AF8CEFAD8AF52DEDF52EAC2DE412015D
:10071500297B967A43798B783C12001E1201628EF2
:100725002F8F30800B308D08752F037530E7C28D04
:04073500AE2FAF3004
:01073900229D
:10001E00EC4D6011E8497017ED33EC3304600DE4DC
:10002E00FCFFFEFD22E933E8330470F80201CE1224
:10003E00019958046009E4CC248150062850090225
:10004E0001D82840030201D5C0E0EB4A7044B980C4
:10005E0006D0E0FB0201C4EF4E701CBD8008EBFF22
:10006E00EAFEE9FD80EBE98DF0A4FEE5F002010762
:10007E00E9CDF9EAFEEBFFEF89F0A4FCE5F0CE89BD
:10008E00F0A42EFFE435F0CD89F0A42DFEE435F07A
:10009E008067EF4E7005BD80D780C3EF8BF0A4ACA8
:1000AE00F0EE8BF0A42CFCE435F0F8EF8AF0A42CE3
:1000BE00E5F038FCE433CB8DF0A42CFCE5F03BF8F6
:1000CE00EE8AF0A42CFCE5F038F8E433CF89F0A4E6
:1000DE002CFCE5F038CF3400CE89F0A42FFFE5F0EC
:1000EE003EFEE433C98DF0A42EFEE5F039CD8AF044
:1000FE00A42FFFE5F03EFEE43DFD33D0E0FB5007BC
:10010E000BBB000F0201D8EC2CFCEF33FFEE33FEDD
:06011E00ED33FD0201B00B
:1001240075F020800E75F010800575F0087D007E56
:10013400007F003392D530D50312027EEC33401099
:10014400EF33FFEE33FEED33FDEC33FCD5F0ED225F
:0E015400E5F0247EA2D513CC92E7CDCEFF229B
:10016200EDD2E7CD33EC3392D524814006E4FFFE95
:10017200FDFC22FCE4CFCECDCC24E0501174FF80F4
:10018200EDC3CC13CCCD13CDCE13CECF13CF047091
:07019200F030D5DE02027E11
:10019900E9D2E7C933E833F892D5EDD2E7CD33ECAC
:0701A90033FC5002B2D52225
:1001B000EC30E7100FBF000C0EBE00080DBD0004B0
:1001C0000BEB6014A2D5EB13FCED92E7FD2274FF5C
:1001D000FCFDFEFF22E480F8A2D574FF13FC7D80B5
:0301E000E480EFC9
:0300000002056A8C
:0C056A00787FE4F6D8FD7581420205B1EF
:1001E300BB010689828A83E0225002E722BBFE021A
:0901F300E32289828A83E493224D
:1001FC00BB010CE58229F582E5833AF583E02250B8
:10020C0006E92582F8E622BBFE06E92582F8E22201
:0D021C00E58229F582E5833AF583E493221B
:10022900BC000BBE0029EF8DF084FFADF022E4CCB9
:10023900F875F008EF2FFFEE33FEEC33FCEE9DEC82
:10024900984005FCEE9DFE0FD5F0E9E4CEFD22EDC8
:10025900F8F5F0EE8420D21CFEADF075F008EF2F12
:10026900FFED33FD4007985006D5F0F222C398FD03
:050279000FD5F0EA22A0
:0E027E00C3E49FFFE49EFEE49DFDE49CFC2291
:100576000209F9E493A3F8E493A34003F68001F299
:1005860008DFF48029E493A3F85407240CC8C33386
:10059600C4540F4420C8834004F456800146F6DF55
:1005A600E4800B0102040810204080900786E47E58
:1005B600019360BCA3FF543F30E509541FFEE4934A
:1005C600A360010ECF54C025E060A840B8E493A311
:1005D600FAE493A3F8E493A3C8C582C8CAC583CA3C
:1005E600F0A3C8C582C8CAC583CADFE9DEE780BEF4
:0107CA00002E
:00000001FF
