:100B2F0008301010101010101010083F00000000B7
:100B3F0000000000084A0000000000000000C10192
:0B0B4F00C100012200012854015200E7
:100E6A00E4F528C201752F1E753928F54775260144
:070E7A00752754752B0A22B5
:100EAB00E4FF74302FF87610743F2FF8E4F60FBF81
:020EBB0008F03D
:010EBD002212
:10073F00E52D452C60030208CAF52C752D01120A10
:10074F00128F2EE52A652EFF552EF529E52EF45F23
:10075F00F538852E2AE52924FB603124FD606814C5
:10076F00700302085A240560030208CA120EABE593
:10077F0028700475280122E528B401047528022287
:10078F00E528640260030208CAF52822120EABE5C1
:10079F00287003B20122E528B40106A200B392002B
:1007AF0022E528640260030208CAE522700475225C
:1007BF000122E522B4010475220222E522640260BF
:1007CF00030208CAF52222120EABE528B401243029
:1007DF00000F052FE52F645060030208CA752F50D4
:1007EF0022740A2539F539C3946350030208CA7578
:1007FF00396322E528640260030208CAE5227014F7
:10080F0074052547F547C3648094DA50030208CA7C
:10081F0075475A22E522B40120740A2527F527E4EB
:10082F003526F526C3E5279406E5269427500302BF
:10083F0008CA75262775270622E5226402707C05F3
:10084F002BE52B64147074752B1422120EABE52854
:10085F00B4011B300009152FE52F705FF52F22749F
:10086F00F62539F539D3940A505175390A22E528FE
:10087F0064027047E522701174FB2547F547D36476
:10088F0080942650367547A622E522B4011E74F6D1
:10089F002527F52774FF3526F526D3E527940AE596
:1008AF00269400501675260075270A22E522B402F9
:0C08BF000A152BE52BB40103752B012258
:10000E00E53D453C600302042BF53C753D01E539A9
:10001E002405FFE433FEC3E5499FE5489E401FD308
:10002E00E5499FE5489E5016E52F75F00AA4FFD3CB
:10003E00E53B9FE53A95F050057552018003E4F5D6
:10004E0052E528600302022BAE3AAF3BFC7D6412F0
:10005E0005BF8F30AE3AAF3B7C007D641205BF7E8C
:10006E00007F0ACFCDCFCECCCE1205BF8F31AE3AA8
:10007E00AF3B7C007D0A1205BF8D32754001753392
:10008E0012AE48AF497C037DE81205BFEF4E600209
:10009E0080027F108F34AE48AF497C037DE8120595
:1000AE00BFEF4E605EAE48AF497C037DE81205BFE0
:1000BE007E007F64CFCDCFCECCCE1205BFEF4E608B
:1000CE000280027F008F35AE48AF497C007D6412FE
:1000DE0005BF7E007F0ACFCDCFCECCCE1205BFEFAF
:1000EE004E600280027F008F36AE48AF497C007DA5
:1000FE000A1205BFED4C6004AF0580027F008F37FA
:10010E0002022430015EAE48AF497C037DE8120541
:10011E00BF7E007F64CFCDCFCECCCE1205BFEF4ECB
:10012E00600280027F008F35AE48AF497C007D644F
:10013E001205BF7E007F0ACFCDCFCECCCE1205BF2B
:10014E00EF4E600280027F008F36AE48AF497C00D2
:10015E007D0A1205BFED4C6004AF0580027F008F53
:10016E0037020224AE48AF497C037DE81205BF7EFC
:10017E00007F64CFCDCFCECCCE1205BFEF4E600246
:10018E0080027F108F35AE48AF497C037DE81205A3
:10019E00BF7E007F64CFCDCFCECCCE1205BFEF4E4B
:1001AE00603BAE48AF497C007D641205BF7E007F88
:1001BE000ACFCDCFCECCCE1205BFEF4E600280025D
:1001CE007F008F36AE48AF497C007D0A1205BFED29
:1001DE004C6004AF0580027F008F378039AE48AF88
:1001EE00497C007D641205BF7E007F0ACFCDCFCE45
:1001FE00CCCE1205BFEF4E600280027F108F36AE5E
:10020E0048AF497C007D0A1205BFED4C6004AF0576
:10021E0080027F008F37A201E433F54422E5286483
:10022E0001702975301130000F753102E52F75F010
:10023E000A84F536E52F800D753101E53975F00A22
:10024E0084F536E53975F00A8402030BE52864025D
:10025E00600302042B75300FE52204F531E52260B0
:10026E000302030FC3E54764809476501975351267
:10027E00E547F404FF75F00A12058BF536EF75F0BD
:10028E000A12058B8077C3E54764809480500D7504
:10029E003510753612E547F404F53722E54775F04B
:1002AE006412058BFF600280027F108F35E5477563
:1002BE00F06412058B6024E54775F06412058BAF70
:1002CE00F0EF75F00A12058BFF600280027F008F3F
:1002DE0036E54775F00A12058B8022E54775F06406
:1002EE0012058BAFF0EF75F00A12058BFF600280DE
:1002FE00027F108F36E54775F00A12058B85F037B1
:10030E0022E52264016003020412AE26AF277C03AD
:10031E007DE81205BFEF4E600280027F108F34AE73
:10032E0026AF277C037DE81205BFEF4E6046AE2652
:10033E00AF277C037DE81205BF7E007F64CFCDCF53
:10034E00CECCCE1205BFEF4E600280027F008F35FD
:10035E00AE26AF277C007D641205BF7E007F0ACFDC
:10036E00CDCFCECCCE1205BFEF4E60030204027F7E
:10037E0000020402AE26AF277C037DE81205BF7E85
:10038E00007F64CFCDCFCECCCE1205BFEF4E600234
:10039E0080027F108F35AE26AF277C037DE81205D5
:1003AE00BF7E007F64CFCDCFCECCCE1205BFEF4E39
:1003BE006022AE26AF277C007D641205BF7E007FD3
:1003CE000ACFCDCFCECCCE1205BFEF4E600280024B
:1003DE007F008020AE26AF277C007D641205BF7E95
:1003EE00007F0ACFCDCFCECCCE1205BFEF4E60022E
:1003FE0080027F108F36AE26AF277C007D0A120555
:10040E00BF8D3622E522B40214E52B75F00A84F571
:0E041E0036E52B75F00A8485F037754501220E
:10097600C3E549940AE54894005008E52B75F0054F
:1009860084803DD3E549945AE54894004005753E78
:10099600FF8033C37405952BFFE49400FE7C007D35
:1009A600501205BFE54924F6FDE54834FFFC120563
:1009B600AD7C00EF252BFFEC3EFE7D051205BFEF5B
:1009C60075F0FFA4F53EAF3E120E04E528702BAF7E
:1009D60049EF5401F54AEF5402F54BEF5404F54C38
:1009E600EF5408F54DEF5410F54EEF5420F54FEF48
:1009F6005440F550EF5480F55122E528B4010475B2
:0C0A0600510122E528B4020385254A2294
:03000B000208CB1D
:1008CB00C0E0C0F0C083C082C0D075D000C000C0F3
:1008DB0001C002C003C004C005C006C007052DE55A
:1008EB002D7002052C640A452C7004F52CF52D0592
:1008FB003DE53D7002053C64C8453C7004F53CF594
:10090B003D0521E521B408037521000524AF247EA4
:10091B0000BE0106BFF403752400E528B4020D05E3
:10092B0023E523B464067523006325FF743025216A
:10093B00F8E6FD743F2521F8E6FBAF21120CCA74D3
:10094B004A2521F8E6FDAF21120C98AF52120DCDBE
:10095B00D007D006D005D004D003D002D001D000F0
:0B096B00D0D0D082D083D0F0D0E0329A
:100E8100538E7F5389F0758A18758CFCC28DD28C74
:050E9100D2A9D2AF223E
:100D2500800AE53BB4520EE53AB40309120C608E15
:100D35003A8F3B80ED120EDE120E6A120E811207FB
:090D45003F12000E12097680F540
:040DEA00D2A07F0A0A
:100DEE00000000000000000000000000000000AE47
:060DFE00071FEE70EB225E
:0F0ECF00D2A1120DEAC2A17F0A120DEEC2A0221B
:0C0EED00C2A1120DEAD2A17F0A020DEE94
:020CF900AD0745
:100CFB00E4FCC2A07F0A120DEEED30E704D2A18016
:100D0B0002C2A17F0A120DEED2A0ED25E0FD7F0AF3
:090D1B00120DEE0CBC08DBC2A0B5
:010D240022AC
:100D9300E4FC120DEAED25E0FD30A103430501C299
:0C0DA300A07F0A120DEE0CBC08E8AF05A2
:010DAF002221
:030E9600120CF942
:100E9900120DEAA2A1E433FDC2A07F0A120DEEAF42
:010EA9000543
:010EAA002225
:100E5200C2A0EF24FF92A17F0A120DEE120DEAC288
:080E6200A0D2A17F0A020DEEEF
:100E0400AB07120ECF7F90120E967F40120E96AF54
:0A0E140003120CF9120E99020EED04
:100A1200C2C4D2B4D2B5D2C2D2B3D2B2D2B1D2B09F
:100A220020B0027F0720B1027F0620B2027F05209C
:100A3200B3027F04C2C2D2B4D2B5D2C4D2B3D2B24C
:100A4200D2B1D2B020B0027F0B20B1027F0A20B215
:100A5200027F0920B3027F08C2B5D2B4D2C4D2C287
:100A6200D2B3D2B2D2B1D2B020B0027F0F20B10243
:100A72007F0E20B2027F0D20B3027F0CC2B4D2C41B
:100A8200D2B5D2C2D2B3D2B2D2B1D2B020B0027FEA
:100A92001220B1027F1220B2027F1120B3027F1016
:010AA2002231
:100B5A000108000109FF010A00010BFF010C000155
:020B6A000DFF7D
:100C9800ED6010A8077401088002C333D8FCF45231
:100CA80008800DA8077401088002C333D8FC4208E5
:100CB800E5086509600B8508807F04120C27850804
:010CC8000922
:010CC9002208
:100DB000EF6005430A408003530ABFE50A650B60F4
:0C0DC0000B850A807F05120C27850A0BAA
:010DCC002204
:100DCD00EF6005430C108003530CEFE50C650D60CF
:0C0DDD000B850C807F05120C27850C0D87
:010DE90022E7
:100B6C00086601020408102040801353C0F9A4B099
:0F0B7C00999282F880908883C6A1868EFF8CBFE5
:100CCA008F0E8D0F8B107580FF7F07120C277466AD
:100CDA00250EF8E6F5807F06120C277453250FF8C7
:0F0CEA00E6F580E510600353807F7F07020C273B
:040E1E007F057E00CE
:100E2200EF1FAA0670011E4A600BE4FDEDC3940C8D
:050E320050EE0D80F7F9
:010E37002298
:020D7500A907CC
:100D7700E4FBC294E9139294120E1ED294E9C313B2
:0C0D8700F90BBB08ED7F057E00020E2278
:100E3800E4FBC294ECC313FCD294309403430480C3
:090E4800120E1E0BBB08EBAF04F7
:010E5100227E
:100D4E00C202D2947F0C7E00120E22C2947F507E7D
:100D5E0000120E22D2947F0A7E00120E22A29492CC
:060D6E0002120E1EA2029B
:010D7400225C
:100C6000120D4E7FCC120D757F44120D75120D4E74
:100C70007FCC120D757FBE120D75120E38A90712AA
:100C80000E38EFAD01FCEC1204D17BCD7ACC79CCDF
:080C9000783F12042F02050A4F
:100C2700EF24FB601414601B14602224037026E574
:100C3700A0541F4480F5A0801CE5A0541F44A0F5D4
:100C4700A08012E5A0541F44C0F5A08008E5A05479
:090C57001F44E0F5A053A01F2288
:0F0EDE007580FF7F04120C27E4F5800F020C27AC
:0600030000007F21DFFE7A
:0100090022D4
:100EBE00E4FED290120003C2901200030EBE08F29E
:010ECE002201
:100B8C0053890F438950E4F58BF58D120EBED28E2E
:100B9C00309103308FFAC28E208F1BAF8DEFFEADDC
:100BAC008BEDFFAC26AD271205ADE4FCFD7B807A06
:100BBC0084791EF88019C28FAE26AF27E4FCFDFBAA
:100BCC00FA7901F81206147B807A84791E78001267
:060BDC000BE3E5472FFFCB
:010BE20022F0
:10042C00020580EC5D046005E85904700302057652
:10043C00120541580460F6EC4860F2EC7004FDFEC5
:10044C00FF22C860DB2481C85009C39860025006A3
:10045C0002057D9850CAF582E9294B4A7005AB829A
:10046C0002056C75F0007C1A7880C3EF9BEE9AED58
:10047C0099400DC3EF9BFFEE9AFEED99FDE842F01B
:10048C00DC23ACF0D0E0FFD0E0FED0E0FDAB82206E
:10049C00E7101BEB60BAEC2CFCEF33FFEE33FEEDF8
:1004AC0033FD020558E803F830E705C0F075F0009D
:1004BC00EF2FFFEE33FEED33FD40B830E7C280AADC
:1004CC0075F020800E75F010800575F0087D007EAB
:1004DC00007F003392D530D503120663EC33401005
:1004EC00EF33FFEE33FEED33FDEC33FCD5F0ED22B4
:0E04FC00E5F0247EA2D513CC92E7CDCEFF22F0
:10050A00EDD2E7CD33EC3392D524814006E4FFFEE9
:10051A00FDFC22FCE4CFCECDCC24E0501174FF8048
:10052A00EDC3CC13CCCD13CDCE13CECF13CF0470E5
:07053A00F030D5DE0206637C
:10054100E9D2E7C933E833F892D5EDD2E7CD33EC00
:0705510033FC5002B2D52279
:10055800EC30E7100FBF000C0EBE00080DBD000404
:100568000BEB6014A2D5EB13FCED92E7FD2274FFB0
:10057800FCFDFEFF22E480F8A2D574FF13FC7D8009
:03058800E480EF1D
:03000000020AA34E
:0C0AA300787FE4F6D8FD75816D020AEA48
:10058B00C2D530F707B2D563F0FF05F030E70CB2F8
:10059B00D5F4048463F0FF05F080018430D502F4B8
:0205AB00042228
:1005AD00EF8DF0A4A8F0CF8CF0A428CE8DF0A42E62
:0205BD00FE221C
:1005BF00BC000BBE0029EF8DF084FFADF022E4CC20
:1005CF00F875F008EF2FFFEE33FEEC33FCEE9DECE9
:1005DF00984005FCEE9DFE0FD5F0E9E4CEFD22ED2F
:1005EF00F8F5F0EE8420D21CFEADF075F008EF2F79
:1005FF00FFED33FD4007985006D5F0F222C398FD6A
:05060F000FD5F0EA2206
:10061400E88FF0A4CC8BF0A42CFCE98EF0A42CFC85
:100624008AF0EDA42CFCEA8EF0A4CDA8F08BF0A403
:100634002DCC3825F0FDE98FF0A42CCD35F0FCEB62
:100644008EF0A4FEA9F0EB8FF0A4CFC5F02ECD3927
:0F065400FEE43CFCEAA42DCE35F0FDE43CFC2294
:100BE300C2D5E830E70FB2D5E4C39BFBE49AFAE43D
:100BF30099F9E498F8EC30E717B2D5120C191206FC
:100C0300ADE4C39BFBE49AFAE499F9E498F8800312
:100C13001206AD30D50DE4C39FFFE49EFEE49DFDB7
:040C2300E49CFC222F
:0E066300C3E49FFFE49EFEE49DFDE49CFC22A8
:100AAF00020D25E493A3F8E493A34003F68001F22B
:100ABF0008DFF48029E493A3F85407240CC8C33348
:100ACF00C4540F4420C8834004F456800146F6DF17
:100ADF00E4800B0102040810204080900B2FE47E6D
:100AEF00019360BCA3FF543F30E509541FFEE4930C
:100AFF00A360010ECF54C025E060A840B8E493A3D3
:100B0F00FAE493A3F8E493A3C8C582C8CAC583CAFD
:100B1F00F0A3C8C582C8CAC583CADFE9DEE780BEB5
:010B8B000069
:1006710075F008758200EF2FFFEE33FECD33CDCC40
:1006810033CCC58233C5829BED9AEC99E5829840C3
:100691000CF582EE9BFEED9AFDEC99FC0FD5F0D6A0
:1006A100E4CEFBE4CDFAE4CCF9A88222B800C1B9CA
:1006B1000059BA002DEC8BF084CFCECDFCE5F0CB08
:1006C100F97818EF2FFFEE33FEED33FDEC33FCEB41
:1006D10033FB10D703994004EB99FB0FD8E5E4F9FC
:1006E100FA227818EF2FFFEE33FEED33FDEC33FCE9
:1006F100C933C910D7059BE99A4007EC9BFCE99ADD
:10070100F90FD8E0E4C9FAE4CCFB2275F010EF2F21
:10071100FFEE33FEED33FDCC33CCC833C810D70721
:100721009BEC9AE899400AED9BFDEC9AFCE899F85C
:0E0731000FD5F0DAE4CDFBE4CCFAE4C8F922EF
:00000001FF
