:100A240008301010101010101010083F00000000C3
:100A340000000000084B000000000000000001223C
:040A4400000153005A
:100CB900E4F528F548752F1E753928F5477525017E
:070CC900752654752B0A2269
:100D1100E4FF74302FF87610743F2FF8E4F60FBF1C
:020D210008F0D8
:010D230022AD
:10064800E52D452C60030207CEF52C752D01120906
:10065800078F2EE52E652AFF552EF529E52EF45F26
:10066800F538852E2AE529B4041DE5287004752877
:100678000122E528B4010475280222E528640260F5
:10068800030207CEF52822E52964057037E52870AE
:10069800046348FF22E528B401046327FF22E52804
:1006A800640260030207CEE522700475220122E588
:1006B80022B4010475220222E522640260030207C3
:1006C800CEF52222E5296408600302075AE528B41A
:1006D8000125E527600F052FE52F64506003020709
:1006E800CE752F5022740A2539F539C39463500307
:1006F8000207CE75396322E52864027052E522703C
:100708001474052547F547C3648094DA500302073B
:10071800CE75475A22E522B40120740A2526F5260B
:10072800E43525F525C3E5269406E52594275003E9
:100738000207CE75252775260622E5226402600386
:100748000207CE052BE52B6414707B752B1422E56C
:100758002822E5296409706EE528B4011CE52760A4
:1007680009152FE52F705FF52F2274F62539F53915
:10077800D3940A505175390A22E52864027047E576
:1007880022701174FB2547F547D3648094265036B0
:100798007547A622E522B4011E74F62526F52674AF
:1007A800FF3525F525D3E526940AE525940050164E
:1007B80075250075260A22E522B4020A152BE52BB9
:0707C800B40103752B0122AF
:10000E00E53D453C6003020451F53C753D01120A85
:10001E00B38E3A8F3B120B9FAC25AD261205D3EE55
:10002E00C313FEEF13FFAD47ED3395E0FCEF2DF557
:10003E004AEE3CF549E5392405FFE433FEC3E54AB3
:10004E009FE5499E401FD3E54A9FE5499E5016E520
:10005E002F75F00AA4FFD3E53B9FE53A95F05005C6
:10006E007553018003E4F553E5286003020250AE98
:10007E003AAF3BFC7D641205E58F30AE3AAF3B7C68
:10008E00007D641205E57E007F0ACFCDCFCECCCEAB
:10009E001205E58F31AE3AAF3B7C007D0A1205E5C5
:1000AE008D32754001753312AE49AF4A7C037DE83F
:1000BE001205E5EF4E600280027F108F34AE49AF1D
:1000CE004A7C037DE81205E5EF4E605EAE49AF4A0D
:1000DE007C037DE81205E57E007F64CFCDCFCECCCC
:1000EE00CE1205E5EF4E600280027F008F35AE49DD
:1000FE00AF4A7C007D641205E57E007F0ACFCDCF2E
:10010E00CECCCE1205E5EF4E600280027F008F3618
:10011E00AE49AF4A7C007D0A1205E5ED4C6004AF96
:10012E000580027F008F3702024CE548605EAE49C3
:10013E00AF4A7C037DE81205E57E007F64CFCDCF0C
:10014E00CECCCE1205E5EF4E600280027F008F35D9
:10015E00AE49AF4A7C007D641205E57E007F0ACF72
:10016E00CDCFCECCCE1205E5EF4E600280027F00E1
:10017E008F36AE49AF4A7C007D0A1205E5ED4C6024
:10018E0004AF0580027F008F3702024CAE49AF4AA2
:10019E007C037DE81205E57E007F64CFCDCFCECC0B
:1001AE00CE1205E5EF4E600280027F108F35AE490C
:1001BE00AF4A7C037DE81205E57E007F64CFCDCF8C
:1001CE00CECCCE1205E5EF4E603BAE49AF4A7C0079
:1001DE007D641205E57E007F0ACFCDCFCECCCE1248
:1001EE0005E5EF4E600280027F008F36AE49AF4AC2
:1001FE007C007D0A1205E5ED4C6004AF0580027FA0
:10020E00008F378039AE49AF4A7C007D641205E518
:10021E007E007F0ACFCDCFCECCCE1205E5EF4E605D
:10022E000280027F108F36AE49AF4A7C007D0A12E3
:10023E0005E5ED4C6004AF0580027F008F378548E1
:10024E004422E5286401702A753011E527600F7588
:10025E003102E52F75F00A84F536E52F800D7531E4
:10026E0001E53975F00A84F536E53975F00A840230
:10027E000331E5286402600302045175300FE52254
:10028E0004F531E5226003020335C3E5476480942B
:10029E00765019753512E547F404FF75F00A12050C
:1002AE00B1F536EF75F00A1205B18077C3E54764F4
:1002BE00809480500D753510753612E547F404F5AF
:1002CE003722E54775F0641205B1FF600280027FA8
:1002DE00108F35E54775F0641205B16024E547755A
:1002EE00F0641205B1AFF0EF75F00A1205B1FF60C0
:1002FE000280027F008F36E54775F00A1205B18045
:10030E0022E54775F0641205B1AFF0EF75F00A12F1
:10031E0005B1FF600280027F108F36E54775F00A47
:10032E001205B185F03722E522640160030204381C
:10033E00AE25AF267C037DE81205E5EF4E60028008
:10034E00027F108F34AE25AF267C037DE81205E5C3
:10035E00EF4E6046AE25AF267C037DE81205E57EA6
:10036E00007F64CFCDCFCECCCE1205E5EF4E60022E
:10037E0080027F008F35AE25AF267C007D6412058E
:10038E00E57E007F0ACFCDCFCECCCE1205E5EF4E67
:10039E0060030204287F00020428AE25AF267C03EA
:1003AE007DE81205E57E007F64CFCDCFCECCCE1298
:1003BE0005E5EF4E600280027F108F35AE25AF2629
:1003CE007C037DE81205E57E007F64CFCDCFCECCD9
:1003DE00CE1205E5EF4E6022AE25AF267C007D6481
:1003EE001205E57E007F0ACFCDCFCECCCE1205E52D
:1003FE00EF4E600280027F008020AE25AF267C008B
:10040E007D641205E57E007F0ACFCDCFCECCCE1215
:10041E0005E5EF4E600280027F108F36AE25AF26C7
:10042E007C007D0A1205E58D3622E522B40214E524
:10043E002B75F00A84F536E52B75F00A8485F037B6
:04044E0075450122CD
:1007CF00C3E54A940AE54994005008E52B75F005F6
:1007DF0084803DD3E54A945AE54994004005753E1F
:1007EF00FF8033C37405952BFFE49400FE7C007DDE
:1007FF00501205E5E54A24F6FDE54934FFFC1205E4
:10080F00D37C00EF252BFFEC3EFE7D051205E5EFB7
:10081F0075F0FFA4F53EAF3E120C53E528702BAFD9
:10082F004AEF5401F54BEF5402F54CEF5404F54DDC
:10083F00EF5408F54EEF5410F54FEF5420F550EFED
:10084F005440F551EF5480F55222E528B401047558
:0C085F00520122E528B4020385244B223C
:03000B0002086B7D
:10086B00C0E0C0F0C083C082C0D075D000C000C053
:10087B0001C002C003C004C005C006C007052DE5BA
:10088B002D7002052C640A452C7004F52CF52D05F2
:10089B003DE53D7002053C64C8453C7004F53CF5F4
:1008AB003D0521E521B40803752100E528B4020DAF
:1008BB000523E523B464067523006324FF743025F8
:1008CB0021F8E6FD743F2521F8E6FBAF21120B1D45
:1008DB00744B2521F8E6FDAF21120AEBAF53120C36
:1008EB001CD007D006D005D004D003D002D001D045
:0C08FB0000D0D0D082D083D0F0D0E0320A
:100CE700538E7F5389F0758A18758CFCC28DD28C10
:050CF700D2A9D2AF22DA
:100D2400538EBF53890F438950E4F58BF58DC28FE1
:030D3400C28E224A
:100CD000120D57120CB9120CE7120D24120648120D
:070CE000000E1207CF80F5A2
:040C3900D2A07F0ABC
:100C3D00000000000000000000000000000000AEF9
:060C4D00071FEE70EB2210
:0F0D4800D2A1120C39C2A17F0A120C3DC2A02207
:0C0D6600C2A1120C39D2A17F0A020C3D80
:020B4C00AD07F3
:100B4E00E4FCC2A07F0A120C3DED30E704D2A18076
:100B5E0002C2A17F0A120C3DD2A0ED25E0FD7F0A54
:090B6E00120C3D0CBC08DBC2A016
:010B7700225B
:100BE200E4FC120C39ED25E0FD30A103430501C2FE
:0C0BF200A07F0A120C3D0CBC08E8AF0507
:010BFE0022D4
:030CFC00120B4C8C
:100CFF00120C39A2A1E433FDC2A07F0A120C3DAF42
:010D0F0005DE
:010D100022C0
:100CA100C2A0EF24FF92A17F0A120C3D120C39C29F
:080CB100A0D2A17F0A020C3D54
:100C5300AB07120D487F90120CFC7F40120CFCAFC7
:0A0C630003120B4C120CFF020D6689
:10090700C2C4D2B4D2B5D2C2D2B3D2B2D2B1D2B0AB
:1009170020B0027F0720B1027F0620B2027F0520A8
:10092700B3027F04C2C2D2B4D2B5D2C4D2B3D2B258
:10093700D2B1D2B020B0027F0B20B1027F0A20B221
:10094700027F0920B3027F08C2B5D2B4D2C4D2C293
:10095700D2B3D2B2D2B1D2B020B0027F0F20B1024F
:100967007F0E20B2027F0D20B3027F0CC2B4D2C427
:10097700D2B5D2C2D2B3D2B2D2B1D2B020B0027FF6
:100987001220B1027F1220B2027F1120B3027F1022
:01099700223D
:100A48000108000109FF010A00010BFF010C000168
:020A58000DFF90
:100AEB00ED6010A8077401088002C333D8FCF452E0
:100AFB0008800DA8077401088002C333D8FC420894
:100B0B00E5086509600B8508807F04120A7A850861
:010B1B0009D0
:010B1C0022B6
:100BFF00EF6005430A408003530ABFE50A650B60A7
:0C0C0F000B850A807F05120A7A850A0B0B
:010C1B0022B6
:100C1C00EF6005430C108003530CEFE50C650D6081
:0C0C2C000B850C807F05120A7A850C0DE8
:010C38002299
:100A5A00086701020408102040801354C0F9A4B0AA
:0F0A6A00999282F880908883C6A1868EFF8C8F28
:100B1D008F0E8D0F8B107580FF7F07120A7A746709
:100B2D00250EF8E6F5807F06120A7A7454250FF823
:0F0B3D00E6F580E510600353807F7F07020A7A98
:040C6D007F057E0081
:100C7100EF1FAA0670011E4A600BE4FDEDC3940C40
:050C810050EE0D80F7AC
:010C8600224B
:020BC400A9077F
:100BC600E4FBC294E9139294120C6DD294E9C31318
:0C0BD600F90BBB08ED7F057E00020C71DE
:100C8700E4FBC294ECC313FCD29430940343048076
:090C9700120C6D0BBB08EBAF045D
:010CA0002231
:100B7800C200D2947F0C7E00120C71C2947F507E0A
:100B880000120C71D2947F0A7E00120C71A294920A
:060B980000120C6DA2002A
:010B9E002234
:100AB300120B787FCC120BC47F44120BC4120B7839
:100AC3007FCC120BC47FBE120BC4120C87A9071272
:100AD3000C87EFAD01FCEC1204F77BCD7ACC79CC1B
:080AE300783F120455020530B2
:100A7A00EF24FB601414601B14602224037026E523
:100A8A00A0541F4480F5A0801CE5A0541F44A0F583
:100A9A00A08012E5A0541F44C0F5A08008E5A05428
:090AAA001F44E0F5A053A01F2237
:0F0D57007580FF7F04120A7AE4F5800F020A7A92
:0600030000007F21DFFE7A
:0100090022D4
:100D3700E4FED290120003C2901200030EBE08F226
:010D47002289
:100B9F00E4F58BF58D120D37D28E208F032091FA4D
:100BAF00C28E308F07C28F7EFF7FFF22AF8DEFFE89
:050BBF00AD8BEDFF22EB
:100452000205A6EC5D046005E85904700302059CE0
:10046200120567580460F6EC4860F2EC7004FDFE79
:10047200FF22C860DB2481C85009C398600250067D
:100482000205A39850CAF582E9294B4A7005AB824E
:1004920002059275F0007C1A7880C3EF9BEE9AED0C
:1004A20099400DC3EF9BFFEE9AFEED99FDE842F0F5
:1004B200DC23ACF0D0E0FFD0E0FED0E0FDAB822048
:1004C200E7101BEB60BAEC2CFCEF33FFEE33FEEDD2
:1004D20033FD02057EE803F830E705C0F075F00051
:1004E200EF2FFFEE33FEED33FD40B830E7C280AAB6
:1004F20075F020800E75F010800575F0087D007E85
:10050200007F003392D530D50312063AEC33401007
:10051200EF33FFEE33FEED33FDEC33FCD5F0ED228D
:0E052200E5F0247EA2D513CC92E7CDCEFF22C9
:10053000EDD2E7CD33EC3392D524814006E4FFFEC3
:10054000FDFC22FCE4CFCECDCC24E0501174FF8022
:10055000EDC3CC13CCCD13CDCE13CECF13CF0470BF
:07056000F030D5DE02063A7F
:10056700E9D2E7C933E833F892D5EDD2E7CD33ECDA
:0705770033FC5002B2D52253
:10057E00EC30E7100FBF000C0EBE00080DBD0004DE
:10058E000BEB6014A2D5EB13FCED92E7FD2274FF8A
:10059E00FCFDFEFF22E480F8A2D574FF13FC7D80E3
:0305AE00E480EFF7
:030000000209985A
:0C099800787FE4F6D8FD75816E0209DF5F
:1005B100C2D530F707B2D563F0FF05F030E70CB2D2
:1005C100D5F4048463F0FF05F080018430D502F492
:0205D100042202
:1005D300EF8DF0A4A8F0CF8CF0A428CE8DF0A42E3C
:0205E300FE22F6
:1005E500BC000BBE0029EF8DF084FFADF022E4CCFA
:1005F500F875F008EF2FFFEE33FEEC33FCEE9DECC3
:10060500984005FCEE9DFE0FD5F0E9E4CEFD22ED08
:10061500F8F5F0EE8420D21CFEADF075F008EF2F52
:10062500FFED33FD4007985006D5F0F222C398FD43
:050635000FD5F0EA22E0
:0E063A00C3E49FFFE49EFEE49DFDE49CFC22D1
:1009A400020CD0E493A3F8E493A34003F68001F28D
:1009B40008DFF48029E493A3F85407240CC8C33354
:1009C400C4540F4420C8834004F456800146F6DF23
:1009D400E4800B0102040810204080900A24E47E85
:1009E400019360BCA3FF543F30E509541FFEE49318
:1009F400A360010ECF54C025E060A840B8E493A3DF
:100A0400FAE493A3F8E493A3C8C582C8CAC583CA09
:100A1400F0A3C8C582C8CAC583CADFE9DEE780BEC1
:010A7900007C
:00000001FF
