:100600000814101010101010101008220000000024
:1006100000000000082B0000000000000000013472
:0D06200000010E00010900012A0001210067
:10088B00E4FF74142FF8761074222FF8E4F60FBFE0
:02089B0008F063
:01089D002238
:10034700E51245116003020414F511751201120438
:10035700158F13E5136510FF5513F50FE513F45FBC
:10036700F51E851310E50F24F3604624FD60511434
:10037700607624F87003020412240D60030204144B
:1003870012088BE4F534E50E7004750E0122E50EB4
:10039700B40115750E02AE1CAF1D7C007D0A12025A
:1003A70024AD077F01020835E50E6402705FF50E84
:1003B7002212088BE4F534E50E64027050F5092229
:1003C70012088BE4F534E50E640170417432251D83
:1003D700F51DE4351CF51CD3E51D94F4E51C9401CB
:1003E700402BE4F51CF51D2212088BE4F534E50ECD
:1003F700B4011A74CE251DF51D74FF351CF51CC3F9
:0E04070094005009751C01751DF42205342265
:10000E00E520451F6003020211F51F7520017F03D5
:10001E001208768F337E007C017DF41202121C7D55
:10002E00FF1202248F0A7E00D3EF951DEE951C4021
:10003E0003752101E521B4010EC3EF951DEE951C4C
:10004E0050050509E4F521C3EF951DEE951C5005ED
:10005E00752A018003E4F52AE50E7024751412E565
:10006E000A75F06484F519E50A75F06484E5F07597
:10007E00F00A84F51AE50A75F00A8485F01B803CB7
:10008E00E50E6401703A751411AE1CAF1DFC7D6453
:10009E001202248F19AE1CAF1D7C007D6412022447
:1000AE007E007F0ACFCDCFCECCCE1202248F1AAED9
:1000BE001CAF1D7C007D0A1202248D1B75270122A8
:1000CE00E50E64026003020211751413AF09FCFD04
:1000DE00FE7B407A42790FF8120654EC4D4E4F607B
:1000EE0012AF09E4FCFDFE7B407A42790FF812064E
:1000FE005480027F108F15AF09E4FCFDFE7B407A21
:10010E0042790FF8120654AC00AD01AE02AF037B7C
:10011E00A07A8679017800120654EC4D4E4F602578
:10012E00AF09E4FCFDFE7B407A42790FF8120654CB
:10013E00AC00AD01AE02AF037BA07A8679017800E8
:10014E0012065480027F108F16AF09E4FCFDFE7B71
:10015E00A07A867901F8120654AC00AD01AE02AF5A
:10016E0003E47B107A27F9F8120654EC4D4E4F60DB
:10017E0024AF09E4FCFDFE7BA07A867901F8120615
:10018E0054AC00AD01AE02AF03E47B107A27F9F850
:10019E0012065480027F108F17AF097E007C277DD8
:1001AE00101202247E037FE8CFCDCFCECCCE12022A
:1001BE0024EF4E600280027F108F18AF097E007C04
:1001CE00037DE81202247E007F64CFCDCFCECCCE4D
:1001DE00120224EF4E600280027F108F19E509751E
:1001EE00F06484E5F075F00A84FF600280027F10EF
:1001FE008F1AE50975F00A84AFF0EF600280027F76
:04020E00108F1B2210
:10076500E50DB48909E50CB413047F0180027F000F
:100775008F2BE5095401F52CE534C3940340047F20
:080785000180027F008F2D228C
:03000B000204CC20
:1004CC00C0E0C0F0C083C082C0D075D000C000C0F6
:1004DC0001C002C003C004C005C006C0070512E578
:1004EC001270020511640A45117004F511F512051C
:1004FC0020E5207002051F64C8451F7004F51FF528
:10050C00200508E508B40803750800E52A601905FC
:10051C000DE50D7002050CC39488E50C9413400E88
:10052C00750C13750D898006750C00750D0074140F
:10053C002508F8E6FD74222508F8E6FBAF0812063C
:10054C00D1742B2508F8E6FDAF08120707D007D0A9
:10055C0006D005D004D003D002D001D000D0D0D02A
:08056C0082D083D0F0D0E03210
:10084C00538E7F5389F0758A18758CFCC28DD28CAF
:05085C00D2A9D2AF2279
:10078D0012089E12084C7F01120861EF75F00AA441
:10079D0085F01CF51D12034712000E12076580F53A
:10041500E4FFC2C4D2B4D2B5D2C2D2B3D2B2D2B141
:10042500D2B020B0027F1920B1027F1920B2027F1D
:100435001920B3027F19C2C4D2B4D2B5D2C2D2B385
:10044500D2B2D2B1D2B020B0027F1920B1027F1949
:1004550020B2027F1920B3027F19C2C2D2B4D2B52D
:10046500D2C4D2B3D2B2D2B1D2B020B0027F192059
:10047500B1027F1920B2027F1920B3027F19C2B5DC
:10048500D2B4D2C4D2C2D2B3D2B2D2B1D2B020B0D9
:10049500027F1920B1027F1920B2027F0D20B3021D
:1004A5007F0CC2B4D2B5D2C4D2C2D2B3D2B2D2B109
:1004B500D2B020B0027F1920B1027F1920B2027F8D
:0604C5001120B3027F10BC
:0104CB00220E
:06062D000154000155FF1D
:10070700ED6010A8077401088002C333D8FCF452C7
:1007170054800DA8077401088002C333D8FC4254E3
:10072700E5546555600B8554807F041206988554FF
:01073700556C
:01073800229E
:100633001435C0F9A4B0999282F880908883C6A13A
:10064300868EFF8CC1AB084901020408102040804C
:1006D1008F518D528B537580FF7F07120698AF5152
:1006E100A8077401088002C333D8FCF5807F061285
:1006F100069874352552F8E6F580E553600353807A
:060701007F7F070206984D
:10069800EF24FB601414601B14602224037026E509
:1006A800A0541F4480F5A0801CE5A0541F44A0F569
:1006B800A08012E5A0541F44C0F5A08008E5A0540E
:0906C8001F44E0F5A053A01F221D
:0F089E007580FF7F04120698E4F5800F0206981C
:04080300D2A07F0AF6
:10080700000000000000000000000000000000AE33
:06081700071FEE70EB224A
:0F08AD00D2A1120803C2A17F0A120807C2A0221B
:1007E7001207391207D51207ADAD077F0112081D91
:0C07F700C2A1120803D2A17F0A02080769
:02073900AD070A
:10073B00E4FCC2A07F0A120807ED30E704D2A180C7
:10074B0002C2A17F0A120807D2A0ED25E0FD7F0AA5
:09075B001208070CBC08DBC2A067
:010764002272
:1007AD00E4FC120803ED25E0FD30A103430501C271
:0C07BD00A07F0A1208070CBC08E8AF057A
:0107C900220D
:0B07CA001207391207D5AF03120739E0
:1007D500120803A2A1E433FDC2A07F0A120807AFE5
:0107E500050E
:0107E60022F0
:10081D00C2A0EF24FF92A17F0A120807120803C29B
:08082D00A0D2A17F0A02080716
:10083500AB05AA071208AD7FA01207391207D5AF7D
:07084500021207CA0207F7C7
:02086100AB07E3
:100863001208AD7FA01207CA1208AD7FA11207E7D5
:02087300AF05CF
:010875002260
:02087600AB07CE
:100878001208AD7F901207CA1208AD7F911207E7E0
:02088800AF05BA
:01088A00224B
:0300000002057482
:0C057400787FE4F6D8FD7581550205BBC8
:10021200EF8DF0A4A8F0CF8CF0A428CE8DF0A42E00
:02022200FE22BA
:10022400BC000BBE0029EF8DF084FFADF022E4CCBE
:10023400F875F008EF2FFFEE33FEEC33FCEE9DEC87
:10024400984005FCEE9DFE0FD5F0E9E4CEFD22EDCD
:10025400F8F5F0EE8420D21CFEADF075F008EF2F17
:10026400FFED33FD4007985006D5F0F222C398FD08
:050274000FD5F0EA22A5
:10065400C2D5E830E70FB2D5E4C39BFBE49AFAE4D1
:1006640099F9E498F8EC30E717B2D512068A120229
:10067400B5E4C39BFBE49AFAE499F9E498F880039F
:100684001202B530D50DE4C39FFFE49EFEE49DFD48
:04069400E49CFC22C4
:1005800002078DE493A3F8E493A34003F68001F2FD
:1005900008DFF48029E493A3F85407240CC8C3337C
:1005A000C4540F4420C8834004F456800146F6DF4B
:1005B000E4800B0102040810204080900600E47ED5
:1005C000019360BCA3FF543F30E509541FFEE49340
:1005D000A360010ECF54C025E060A840B8E493A307
:1005E000FAE493A3F8E493A3C8C582C8CAC583CA32
:1005F000F0A3C8C582C8CAC583CADFE9DEE780BEEA
:0106530000A6
:1002790075F008758200EF2FFFEE33FECD33CDCC3C
:1002890033CCC58233C5829BED9AEC99E5829840BF
:100299000CF582EE9BFEED9AFDEC99FC0FD5F0D69C
:1002A900E4CEFBE4CDFAE4CCF9A88222B800C1B9C6
:1002B9000059BA002DEC8BF084CFCECDFCE5F0CB04
:1002C900F97818EF2FFFEE33FEED33FDEC33FCEB3D
:1002D90033FB10D703994004EB99FB0FD8E5E4F9F8
:1002E900FA227818EF2FFFEE33FEED33FDEC33FCE5
:1002F900C933C910D7059BE99A4007EC9BFCE99AD9
:10030900F90FD8E0E4C9FAE4CCFB2275F010EF2F1D
:10031900FFEE33FEED33FDCC33CCC833C810D7071D
:100329009BEC9AE899400AED9BFDEC9AFCE899F858
:0E0339000FD5F0DAE4CDFBE4CCFAE4C8F922EB
:00000001FF
