:10051000082E1010101010101010083B00000000E2
:100520000000000008440000000000000000012559
:0D0530001E012414012600013800014300C3
:1007C000E4FF742E2FF87610743B2FF8E4F60FBF79
:0207D00008F02F
:0107D2002204
:10028700E52A45296003020337F529752A01120675
:10029700BD8F2BE52B6528FF552BF527E52BF45F45
:1002A700F536852B28E52724FB603A146044146053
:1002B700662403707B1207C0E526700C752601853E
:1002C7002523852422F54322E52664017062F5265D
:1002D700E525C39524500A852325852224753801F1
:1002E70022E4F538221207C0E52664017042634311
:1002F700FF221207C0E52664017035E543600C054F
:1003070025E52564637029752563220524E52464A2
:1003170063701D752463221207C0E526B40111E539
:10032700436007D5250AE4F52522D52403E4F524FF
:0103370022A3
:1004AF00E53A4539705AF539753A011205627C0003
:1004BF007D0A12016D8E2C8F2DE5267019752E0C6D
:1004CF00FC7D0A12016D8F34AE2CAF2D7C007D0A9E
:1004DF0012016D8D3522E526B40125752E11E52506
:1004EF0075F00A84F531E52575F00A8485F032E55B
:1004FF002475F00A84F534E52475F00A8485F03507
:01050F0022C9
:10044900D3E52D9525E52C940040028009C3E52DBF
:100459009524E52C9400E4F537AF37120730AF2522
:100469007E00D3E52D9FE52C9E40047D0180027D11
:10047900008D44D3E52D9FE52C9E500FC3E52D95A6
:1004890024E52C940040047F0180027F008F45C33E
:10049900E52D9524E52C940050047F0180027F000E
:0604A9008F468538472252
:03000B000203C429
:1003C400C0E0C0F0C083C082C0D075D000C000C0FF
:1003D40001C002C003C004C005C006C007052AE569
:1003E4002A70020529640A45297004F529F52A05AD
:1003F4003AE53A70020539646445397004F529F523
:100404002A0521E521B40803752100742E2521F85D
:10041400E6FD743B2521F8E6FBAF211205DC7444AC
:100424002521F8E6FDAF21120612D007D006D0052B
:10043400D004D003D002D001D000D0D0D082D08359
:05044400D0F0D0E03211
:10079600538E7F5389F0758A18758CFCC28DD28C66
:0507A600D2A9D2AF2230
:10069700800AE52DB4520EE52CB403091205628ECB
:1006A7002C8F2D80ED1207E2120796120287120493
:0606B700AF12044980F5BA
:04071600D2A07F0AE4
:10071A00000000000000000000000000000000AE21
:06072A00071FEE70EB2238
:0F07D300D2A1120716C2A17F0A12071AC2A022D2
:0C07F100C2A1120716D2A17F0A02071A4B
:02064400AD0700
:10064600E4FCC2A07F0A12071AED30E704D2A180AB
:1006560002C2A17F0A12071AD2A0ED25E0FD7F0A89
:0906660012071A0CBC08DBC2A04B
:01066F002268
:1006F900E4FC120716ED25E0FD30A103430501C214
:0C070900A07F0A12071A0CBC08E8AF051C
:0107150022C1
:0307AB00120644EF
:1007AE00120716A2A1E433FDC2A07F0A12071AAFE8
:0107BE000535
:0107BF002217
:10077E00C2A0EF24FF92A17F0A12071A120716C217
:08078E00A0D2A17F0A02071AA4
:10073000AB071207D37F901207AB7F401207ABAF16
:0A074000031206441207AE0207F18F
:1006BD0020B0047F07801320B1047F06800C20B288
:0D06CD00047F05800520B3027F0475B0FF97
:0106DA0022FD
:1001D000E4FFC2C4D2B4D2B5D2C2D2B3D2B2D2B189
:1001E000D2B020B0027F0720B1027F0620B2027F8A
:1001F0000520B3027F04C2C4D2B4D2B5D2C2D2B3F6
:10020000D2B2D2B1D2B020B0027F0720B1027F06B5
:1002100020B2027F0520B3027F04C2C2D2B4D2B59D
:10022000D2C4D2B3D2B2D2B1D2B020B0027F0B20AE
:10023000B1027F0A20B2027F0920B3027F08C2B553
:10024000D2B4D2C4D2C2D2B3D2B2D2B1D2B020B020
:10025000027F0F20B1027F0E20B2027F0D20B30279
:100260007F0CC2B4D2B5D2C4D2C2D2B3D2B2D2B150
:10027000D2B020B0027F1320B1027F1220B2027FE1
:060280001120B3027F1003
:010286002255
:06053D00010D00010EFF9C
:10061200ED6010A8077401088002C333D8FCF452BD
:100622000D800DA8077401088002C333D8FC420D67
:10063200E50D650E600B850D807F041205A3850D07
:010642000EA9
:010643002294
:10054300124CC0F9A4B0999282F880908883C6A116
:0E055300868EFF8C085E010204081020408096
:1005DC008F088D098B0A7580FF7F071205A3AF0862
:1005EC00A8077401088002C333D8FCF5807F06127B
:1005FC0005A3744C2509F8E6F580E50A60035380E1
:06060C007F7F070205A339
:04074A007F057E00A9
:10074E00EF1FAA0670011E4A600BE4FDEDC3940C68
:05075E0050EE0D80F7D4
:010763002273
:0206DB00A9076D
:1006DD00E4FBC294E913929412074AD294E9C3132E
:0C06ED00F90BBB08ED7F057E0002074EF4
:10076400E4FBC294ECC313FCD2943094034304809E
:0907740012074A0BBB08EBAF04AD
:01077D002259
:10067000C200D2947F0C7E0012074EC2947F507E3F
:100680000012074ED2947F0A7E0012074EA2949267
:060690000012074AA2005F
:010696002241
:100562001206707FCC1206DB7F441206DB12067085
:100572007FCC1206DB7FBE1206DB120764A90712CC
:100582000764AB07EBFEE9FDEEFCED8C0BF50CEC22
:100592001200B37BCD7ACC79CC783F1200110200E5
:0105A200EC6C
:1005A300EF24FB601414601B14602224037026E5FF
:1005B300A0541F4480F5A0801CE5A0541F44A0F55F
:1005C300A08012E5A0541F44C0F5A08008E5A05404
:0905D3001F44E0F5A053A01F2213
:0F07E2007580FF7F041205A3E4F5800F0205A3C5
:10000E00020162EC5D046005E859047003020158B8
:10001E00120123580460F6EC4860F2EC7004FDFE09
:10002E00FF22C860DB2481C85009C39860025006C5
:10003E0002015F9850CAF582E9294B4A7005AB82DE
:10004E0002014E75F0007C1A7880C3EF9BEE9AED9C
:10005E0099400DC3EF9BFFEE9AFEED99FDE842F03D
:10006E00DC23ACF0D0E0FFD0E0FED0E0FDAB822090
:10007E00E7101BEB60BAEC2CFCEF33FFEE33FEED1A
:10008E0033FD02013AE803F830E705C0F075F000E1
:10009E00EF2FFFEE33FEED33FD40B830E7C280AAFE
:1000AE0075F020800E75F010800575F0087D007ECD
:1000BE00007F003392D530D5031201C2EC334010CD
:1000CE00EF33FFEE33FEED33FDEC33FCD5F0ED22D6
:0E00DE00E5F0247EA2D513CC92E7CDCEFF2212
:1000EC00EDD2E7CD33EC3392D524814006E4FFFE0C
:1000FC00FDFC22FCE4CFCECDCC24E0501174FF806B
:10010C00EDC3CC13CCCD13CDCE13CECF13CF047007
:07011C00F030D5DE0201C244
:10012300E9D2E7C933E833F892D5EDD2E7CD33EC22
:0701330033FC5002B2D5229B
:10013A00EC30E7100FBF000C0EBE00080DBD000426
:10014A000BEB6014A2D5EB13FCED92E7FD2274FFD2
:10015A00FCFDFEFF22E480F8A2D574FF13FC7D802B
:03016A00E480EF3F
:03000000020338C0
:0C033800787FE4F6D8FD75816502037F34
:10016D00BC000BBE0029EF8DF084FFADF022E4CC76
:10017D00F875F008EF2FFFEE33FEEC33FCEE9DEC3F
:10018D00984005FCEE9DFE0FD5F0E9E4CEFD22ED85
:10019D00F8F5F0EE8420D21CFEADF075F008EF2FCF
:1001AD00FFED33FD4007985006D5F0F222C398FDC0
:0501BD000FD5F0EA225D
:0E01C200C3E49FFFE49EFEE49DFDE49CFC224E
:10034400020697E493A3F8E493A34003F68001F232
:1003540008DFF48029E493A3F85407240CC8C333BA
:10036400C4540F4420C8834004F456800146F6DF89
:10037400E4800B0102040810204080900510E47E04
:10038400019360BCA3FF543F30E509541FFEE4937E
:10039400A360010ECF54C025E060A840B8E493A345
:1003A400FAE493A3F8E493A3C8C582C8CAC583CA70
:1003B400F0A3C8C582C8CAC583CADFE9DEE780BE28
:010561000099
:00000001FF
