:1005D700081610101010101010100820000000004E
:1005E70000000000082C00000000000000000110BF
:1005F7000001082D012B05010D00010C00010E0063
:1008A500E4FF74162FF8761074202FF8E4F60FBFC6
:0208B50008F049
:0108B700221E
:10038500E513600302043C7513011207C68F14E5DB
:10039500126514FF5514F511E514F45FF52A85145B
:1003A50012E51124FB602F14603914606124036089
:1003B5000302043C1208A5E510700475100122E53E
:1003C50010B40109751002E4F50EF50C22E5106470
:1003D500027064F51022E5106402705B1208A563D3
:1003E5000EFF22E5106402704E1208A5E50E700F8F
:1003F50074052508F508D39432403C750805227428
:1004050005252BF52BD39432402D752B0522E510B0
:10041500B402241208A5E50E700F74FB2508F50833
:10042500C3940550127508322274FB252BF52BC396
:0804350094055003752B3222DF
:10023600E51F451E6003020384F51E751F017F033B
:100246001207A18F0BEF75F064A4FFAEF07C007D62
:10025600FF1201D3EF75F005A485F035F5361206C9
:100266002F8E288F29E5106402602AE52B75F00A87
:10027600A4FFD3E5369FE53595F04015E50875F002
:100286000AA4FFC3E5369FE53595F050047F01804B
:10029600027F008F0CE510703A751611AE35AF3639
:1002A600FC7D641201D38F1BAE35AF367C007D64B6
:1002B6001201D37E007F0ACFCDCFCECCCE1201D392
:1002C6008F1CAE35AF367C007D0A1201D38D1D75AD
:1002D600250122E51064017075751613E50C60643E
:1002E600D3E5299464E52894004024AE28AF297C00
:1002F600007D641201D38F1BAE28AF297C007D647C
:100306001201D37E007F0ACFCDCFCECCCE8013D3C1
:10031600E529940AE5289400401BAE28AF297C0005
:100326007D0A1201D38F1CAE28AF297C007D0A12EC
:1003360001D38D1D22D3E5299400E5289400403E83
:1003460085291D22751B0A751C0A751D0A22E510D2
:10035600B4022B751614E50875F00A84F519E5083C
:1003660075F00A8485F01AE52B75F00A84F51CE50C
:0F0376002B75F00A8485F01D7523017526012271
:10071200E51070047F0180027F008F2CE510B40188
:10072200047F0180027F008F2DE510B402047F0157
:1007320080027F008F2EE50C6004AF0D80027F00E7
:030742008F3322D0
:1006A900E50C6030D3E5299414E5289400400280D4
:1006B90010D3E5299450E528940040057557058025
:1006C90003755701E55775F0058475F0FFA4F534F6
:0406D900FF12087C88
:0106DD0022FA
:03000B0002055596
:10055500C0E0C0F0C083C082C0D075D000C000C06C
:1005650001C002C003C004C005C006C0070513E5ED
:1005750013B40A03751300051FE51F7002051EFF5E
:10058500AE1EBE0109BFF406751E00751F00050FDE
:10059500E50FB40803750F007416250FF8E6FD7412
:1005A50020250FF8E6FBAF0F120745742C250FF831
:1005B500E6FDAF0F1206DED007D006D005D004D079
:1005C50003D002D001D000D0D0D082D083D0F0D0DB
:0205D500E03212
:10086700538E7F5389F0758A18758CFCC28DD28C94
:05087700D2A9D2AF225E
:100891001208B81208671203851207121206A9126C
:0408A100023680F2A9
:0600030000007F21DFFE7A
:0100090022D4
:10067000EF24FB601414601B14602224037026E531
:10068000A0541F4480F5A0801CE5A0541F44A0F591
:10069000A08012E5A0541F44C0F5A08008E5A05436
:0906A0001F44E0F5A053A01F2245
:0F08B8007580FF7F04120670E4F5800F02067052
:04081E00D2A07F05E0
:10082200000000000000000000000000000000AE18
:06083200071FEE70EB222F
:0F08C700D2A112081EC2A17F05120822C2A022D0
:0C08D600C2A112081ED2A17F0502082258
:02077500AD07CE
:10077700E4FCC2A07F05120822ED30E704D2A18075
:1007870002C2A17F05120822D2A0ED25E0FD7F0558
:090797001208220CBC08DBC2A010
:0107A0002236
:1007E400E4FC12081EED25E0FD30A103430501C21F
:0C07F400A07F051208220CBC08E8AF052D
:0108000022D5
:0B08010012077512080CAF03120775F8
:10080C0012081EA2A1E433FDC2A07F05120822AF7C
:01081C0005D6
:01081D0022B8
:10083800C2A0EF24FF92A17F0512082212081EC24F
:08084800A0D2A17F05020822E5
:0207A100AB07A4
:1007A3001208C77F901208011208C77F91120775BC
:1007B30012080C1207E4AD077F011208381208D69D
:0207C300AF0580
:0107C5002211
:10087C00AB071208C77F9012077512080C7F401245
:05088C0008010208D67E
:10043D00C2C4D2B4D2B5D2C220B0047F078013207B
:10044D00B1047F06800C20B2047F05800520B30225
:10045D007F04C2C2D2B4D2B5D2C420B0047F0B8007
:10046D001320B1047F0A800C20B2047F098005207F
:10047D00B3027F08C2B5D2B4D2C4D2C220B0047FB9
:10048D000F801320B1047F0E800C20B2047F0D80ED
:10049D000520B3027F0CC2B4D2C4D2B5D2C220B0F3
:1004AD00047F13801320B1047F12800C20B2047FCF
:0B04BD0011800520B3027F1075B0FF16
:0104C8002211
:1007C60020B0047F07801320B1047F06800C20B27E
:0D07D600047F05800520B3027F0475B0FF8D
:0107E30022F3
:06060700015A00015BFF37
:1006DE00ED600FA8077401088002C333D8FC425A9C
:1006EE00800EA8077401088002C333D8FCF4525A56
:1006FE00E55A655B600DE55AF4F5807F04120670CD
:03070E00855A5BAE
:0107110022C5
:10060D00153FC0F9A4B0999282F880908883C6A155
:10061D00868EFFC1BFC38C0837010204081020402D
:01062D00804C
:100745008F548D558B567580FF7F07120670743751
:100755002554F8E6F5807F06120670743F2555F896
:10076500E6F580E556B4010353807F7F07020670E6
:10085000E4F559D290120003C2901200030559E545
:0608600059C3940840EDAD
:01086600226F
:10062F00E4F557F55853890FF58BF58D120850D215
:10063F008E309103308FFAC28E208D1EAF8DEFADAD
:10064F008BF557EDF558AC57E41201197B967A43A9
:10065F00798B783C12000E020152C28F7E037FE726
:01066F002268
:10000E00EC4D6011E8497017ED33EC3304600DE4EC
:10001E00FCFFFEFD22E933E8330470F80201BE1244
:10002E00018958046009E4CC248150062850090245
:10003E0001C82840030201C5C0E0EB4A7044B980F4
:10004E0006D0E0FB0201B4EF4E701CBD8008EBFF42
:10005E00EAFEE9FD80EBE98DF0A4FEE5F00200F783
:10006E00E9CDF9EAFEEBFFEF89F0A4FCE5F0CE89CD
:10007E00F0A42EFFE435F0CD89F0A42DFEE435F08A
:10008E008067EF4E7005BD80D780C3EF8BF0A4ACB8
:10009E00F0EE8BF0A42CFCE435F0F8EF8AF0A42CF3
:1000AE00E5F038FCE433CB8DF0A42CFCE5F03BF806
:1000BE00EE8AF0A42CFCE5F038F8E433CF89F0A4F6
:1000CE002CFCE5F038CF3400CE89F0A42FFFE5F0FC
:1000DE003EFEE433C98DF0A42EFEE5F039CD8AF054
:1000EE00A42FFFE5F03EFEE43DFD33D0E0FB5007CC
:1000FE000BBB000F0201C8EC2CFCEF33FFEE33FEFE
:06010E00ED33FD0201A02B
:1001140075F020800E75F010800575F0087D007E66
:10012400007F003392D530D503120228EC334010FF
:10013400EF33FFEE33FEED33FDEC33FCD5F0ED226F
:0E014400E5F0247EA2D513CC92E7CDCEFF22AB
:10015200EDD2E7CD33EC3392D524814006E4FFFEA5
:10016200FDFC22FCE4CFCECDCC24E0501174FF8004
:10017200EDC3CC13CCCD13CDCE13CECF13CF0470A1
:07018200F030D5DE02022877
:10018900E9D2E7C933E833F892D5EDD2E7CD33ECBC
:0701990033FC5002B2D52235
:1001A000EC30E7100FBF000C0EBE00080DBD0004C0
:1001B0000BEB6014A2D5EB13FCED92E7FD2274FF6C
:1001C000FCFDFEFF22E480F8A2D574FF13FC7D80C5
:0301D000E480EFD9
:030000000204C92E
:0C04C900787FE4F6D8FD75815B02051019
:1001D300BC000BBE0029EF8DF084FFADF022E4CC10
:1001E300F875F008EF2FFFEE33FEEC33FCEE9DECD9
:1001F300984005FCEE9DFE0FD5F0E9E4CEFD22ED1F
:10020300F8F5F0EE8420D21CFEADF075F008EF2F68
:10021300FFED33FD4007985006D5F0F222C398FD59
:050223000FD5F0EA22F6
:0E022800C3E49FFFE49EFEE49DFDE49CFC22E7
:1004D500020891E493A3F8E493A34003F68001F2A4
:1004E50008DFF48029E493A3F85407240CC8C33328
:1004F500C4540F4420C8834004F456800146F6DFF7
:10050500E4800B01020408102040809005D7E47EAA
:10051500019360BCA3FF543F30E509541FFEE493EB
:10052500A360010ECF54C025E060A840B8E493A3B2
:10053500FAE493A3F8E493A3C8C582C8CAC583CADD
:10054500F0A3C8C582C8CAC583CADFE9DEE780BE95
:01062E0000CB
:00000001FF
