:10081E00084E131313131313131308420000000092
:10082E0000000000082B0000000000000000014A3C
:10083E0000015E00014D00012100013B1E0338172F
:10084E003B3202560000024B00000235000002400F
:10085E000000015C00015B00013E00015900013700
:10086E0000023C0000012A00013F00015D00012250
:07087E0000015A00015800BF
:1009B1001206F2EF24F3602824FE604024067045FD
:1009C100E54A6401703FE54D7004754D0122E54D26
:1009D100B40104754D0222E54D64027028F54D22E3
:1009E100E54A7006F54D754A0122E54AB4010475E0
:1009F1004A0222E54AB4020DE4F54A227F011208B7
:050A01008C8E4B8F4CB0
:010A060022CD
:10030800E54A7044FB7A007923120AEF7553127597
:100318005012E52375F00A84F54EE52375F00A843A
:1003280085F04FE52475F00A84F551E52475F00A47
:100338008485F052E52575F00A84F554E52575F0B5
:100348000A8485F0550204DDE54A6401600302046D
:100358005EE54D7069754801754E0C754F13AE56C4
:10036800AF57FC7D6412026F8F50AE56AF577C00BA
:100378007D6412026F7E007F0ACFCDCFCECCCE1225
:10038800026F8F51755212AE4BAF4C7C007D6412D8
:10039800026F8F53AE4BAF4C7C007D6412026F7EB0
:1003A800007F0ACFCDCFCECCCE12026F8F54AE4B8A
:1003B800AF4C7C007D0A12026F8D550204E0E54DBA
:1003C80064017044754801754E10754F13E55C75EE
:1003D800F06484F550E55C75F06484E5F075F00A26
:1003E80084F551755212E55B75F06484F553E55B4D
:1003F80075F06484E5F075F00A84F554E55B75F0F2
:100408000A8485F0550204E0E54D640260030204A5
:10041800E0754E0FE52175F00A84F54FE52175F07A
:100428000A8485F050E53775F00A84F551E537758B
:10043800F00A8485F052755312AE3CAF3D7C007DC6
:100448000A1202C48F54AE3CAF3D7C007D0A1202F2
:10045800C48D550204DDE54AB40225754E11E53B0D
:1004680075F00A84F554E53B75F00A8485F05575F6
:100478005313755213755113755013754F138055D7
:10048800E54A64037052754E0E7553127550137514
:100498004F13AE35AF36FC7D6412026F8F51AE3507
:1004A800AF367C007D6412026F7E007F0ACFCDCF0D
:1004B800CECCCE12026F8F52E522700875540A75A1
:1004C800550A8011E53E75F00A84F554E53E75F04D
:1004D8000A8485F055E4F548750B00750C00750D18
:0A04E800427B007A00794E0205F80D
:1008F800E54A14601224FE60182403701C752B014D
:10090800E4F52CF52D8012E4F52B752C01F52D80DE
:1009180008E4F52BF52C752D01E55AB40115E4F51D
:100928002E7F64FE120CC8752E017F647E00120CA7
:10093800C88003752E01E5227004F52F8003752FFA
:0F09480001E558E4F5307B007A00792B020B347F
:100A5900AE26AF277C007D6412025D8E268F27C3E8
:100A6900E52794C8E5269400400BD3E52794D0E503
:100A79002694074004E4FEFF22E5272438FFE526F3
:100A890034FFFEEF25E0FFEE33FE7C007D2D1202E0
:0F0A99006FEF240AFFE43EFE7C007D0A12025D2F
:010AA800222B
:1004F200852A3F7FA1120C3D8F2AE52AC3945050D2
:1005020019E53F94504013E55D700F755D010521BB
:10051200E521B4641B7521638016C3E53494B8E504
:1005220033940B400BE55DB40106855E4AE4F55D4C
:10053200E55D640160030205F7854A5E754A037F43
:100542000112088C8E358F36120A598F3EE53E70A5
:1005520005155DF52222752201D3E536953BE53579
:10056200940040047F0180027F008F5AE521C394EA
:10057200024016D3E5369541E5359540400BE53E00
:10058200D3955940047F0180027F008F58D3E557ED
:100592009536E55695354006AE56AF578004AE35D2
:1005A200AF368E568F57E55CD3953E4004AF5C80E4
:1005B20002AF3E8F5CE52124FFFBE434FFFAAC4B33
:1005C200AD4CAF03FE12025DE5362FFFE5353EFE70
:1005D200AD217C0012026F8E4B8F4CE55BFD7C00DF
:1005E200AF03AE0212025DEF253EFFEC3EFEAD21EF
:0605F20012026F8F5B2274
:100D8D00538E7F5389F0438905E4F58AF58CC28D26
:030D9D00D28C22D3
:100D6400538EBF53890F758B18758DFCC28FD28E2D
:050D7400D2ABD2AF225A
:03001B0002095780
:10095700C0E0C0D075D000C005C0070529E52970E3
:10096700020528640A45287014F528F529AF8CEF8D
:10097700AD8AF526EDF527758C00758A00E55DB41F
:1009870001190534E53470020533C394B8E533948F
:100997000B400E75330B7534B9800675330075340B
:0A09A70000D007D005D0D0D0E03218
:100BE300120DC3120D64120D8D7B007A0079381239
:100BF3000A077F0112088C8E358F367FA1120C3DB8
:0E0C03001204F21209B11203081208F880F26E
:0608850001130001140044
:1006F200D2B4D2B5D2C2D2C4C2B0C2B1C2B2C2B3F3
:10070200E5136401706D30C40930C20630B50320B0
:10071200B4617F147E00120CC820C40575080180E4
:100722001B20C205750802801320B50575080380D9
:100732000B20B40575080480037F0022E4F513C280
:10074200B4C2B5C2C2C2C4D2B0D2B1D2B2D2B32044
:10075200B006751401AF082220B106E5082404FF93
:100762002220B206E5082408FF2220B320E508244F
:100772000CFF2230C41730C21430B51130B40E75DC
:0F0782001301E514B40106E4F5147F19227F007A
:010791002245
:060B34008B088A09890A02
:100B3A00E4FFAB08AA09A90A8F827583001201FC97
:100B4A00B40110A8077401088002C333D8FCF45218
:100B5A000B800DA8077401088002C333D8FC420B2E
:0C0B6A000FBF08CE850B807F04020B76C5
:100D7900C0F9A4B0999282F880908883C6A1868E22
:040D8900898CBFFF93
:100AA9008F0E8D0F8B107580FF7F07120B76AF0E9F
:100AB900A8077401088002C333D8FCF5807F0612A9
:100AC9000B76E510700AE50F900D7993F580800A91
:100AD900E50F900D7993547FF5807F07120B767F90
:060AE900017E00020CC8B2
:1005F8008B088A09890A1201E3FDAB0BAA0CA90D25
:100608001201E3FBE4FF120AA9AB08AA09A90A90A0
:1006180000011201FCFDAB0BAA0CA90D9000011200
:1006280001FCFB7F01120AA9AB08AA09A90A9000DC
:10063800021201FCFDAB0BAA0CA90D9000021201DD
:10064800FCFB7F02120AA9AB08AA09A90A900003B9
:100658001201FCFDAB0BAA0CA90D9000031201FCC2
:10066800FB7F03120AA9AB08AA09A90A9000041281
:1006780001FCFDAB0BAA0CA90D9000041201FCFBB8
:100688007F04120AA9AB08AA09A90A900005120159
:10069800FCFDAB0BAA0CA90D9000051201FCFB7F19
:1006A80005120AA9AB08AA09A90A9000061201FCBA
:1006B800FDAB0BAA0CA90D9000061201FCFB7F06EE
:1006C800120AA9AB08AA09A90A9000071201FCFDA1
:1006D800AB0BAA0CA90D9000071201FCFB7F0712B7
:0A06E8000AA9E4FBFD7F08020AA93D
:100B7600EF24FB601414601B14602224037026E526
:100B8600A0541F4480F5A0801CE5A0541F44A0F586
:100B9600A08012E5A0541F44C0F5A08008E5A0542B
:090BA6001F44E0F5A053A01F223A
:100DB300EF1FAC0670011E4C600500000080F1229D
:0A0CC800EF1FAC0670011E4C601116
:0F0CD20000000075110B7512BED512FDD511FA79
:030CE10080E52289
:0F0DC3007580FF7F04120B76E4F5800F020B762C
:100DA000E4FEC297EF1392A3EFC313FFD2970EBED8
:020DB00008F049
:010DB200221E
:080CE40075F00A84E5F04EFDF5
:100CEC00C29300C29700D29300120DA0AF05120D53
:040CFC00A0C29322DD
:100BAF00E4FDC29300C29700D29300120DA0E4FFA0
:100BBF00C297EDC313FD30A303430580D2970FBF38
:100BCF0008EEC29300C29700D29700C2A300D2A32F
:030BDF0000AF055F
:010BE20022F0
:100A0700E4FD7F8E120CEC1201E3FF75F00A84C43B
:100A170054F0FEEF7F84120CE49000011201FCFFFA
:100A270075F00A84C454F0FEEF7F82120CE4900044
:100A3700021201FCFF75F00A84C454F0FEEF75F052
:100A47000A84E5F04EFD7F80120CEC7D807F8E02DC
:020A57000CECA5
:100AEF007F85120BAFEFC4540F75F00AA4FEEF54BD
:100AFF000F2E1202297F83120BAFEFC4540F75F024
:100B0F000AA4FEEF540F2E90000112023B7F8112B8
:100B1F000BAFEFC4540F75F00AA4FEEF540F2E90D5
:050B2F00000202023B80
:040D4E007F057E009F
:100D52007C007D0C12025DEF1FAC0670011E4C7010
:020D6200F62277
:020C8D00AB07B3
:100C8F00E4FAC294EB139294120D4ED294EBC31369
:0C0C9F00FB0ABA08ED7F057E00020D5232
:100D1B00E4FAC294EBC313FBD294309403430380E5
:090D2B00120D4E0ABA08EBAF03E9
:010D3400229C
:100C6600C200D2947F0C7E00120D52C2947F507E39
:100C760000120D52D2947F0A7E00120D52A2949257
:060C860000120D4EA20059
:010C8C002245
:02088C00A907BA
:10088E00120C667FCC120C8D7F44120C8D120C66EE
:10089E007FCC120C8D7FBE120C8D120D1B8F081289
:1008AE000D1BEFFEE508FFE9146018146026240204
:1008BE007037AD07AC06E4120129E4FBFA798078B3
:1008CE003D8020AD07AC06E4120129E4FBFA792045
:1008DE00783F800FAD07AC06E4120129E4FBFA79EC
:0908EE00C8784012001E120162DC
:0108F70022DE
:040DE100D2A07F0518
:080DE50000AE071FEE70F922B9
:0F0DD200D2A1120DE1C2A17F05120DE5C2A02230
:0C0DED00C2A1120DE1D2A17F05020DE5AC
:10000300C2A0A20092A17F05120DE5120DE1C2A0CC
:07001300D2A17F05020DE5FB
:0A0D0000AB07120DD27F90120C1108
:100D0A00120DE1A2A19200C2A07F05120DE5A20078
:010D1A0022B6
:020C1100AD072D
:100C1300E4FCC2A07F05120DE5ED30E704D2A1800C
:100C230002C2A17F05120DE5D2A0ED25E0FD7F05EF
:090C3300120DE50CBC08DBC2A0A7
:010C3C002295
:100CAB00E4FC120DE1ED25E0FD30A103430501C28B
:0C0CBB00A07F05120DE50CBC08E8AF0599
:010CC700220A
:100D3500120D007F40120C11120D0A120DD2AF03D5
:090D4500120C11120D0A020DED51
:100C3D00120D00AF03120C11120D0A120DED120D53
:100C4D00D27F91120C11120D0A120CABAD07D2000E
:080C5D00120003120DEDAF05BA
:010C6500226C
:10001E00EC4D6011E8497017ED33EC3304600DE4DC
:10002E00FCFFFEFD22E933E8330470F80201CE1224
:10003E00019958046009E4CC248150062850090225
:10004E0001D82840030201D5C0E0EB4A7044B980C4
:10005E0006D0E0FB0201C4EF4E701CBD8008EBFF22
:10006E00EAFEE9FD80EBE98DF0A4FEE5F002010762
:10007E00E9CDF9EAFEEBFFEF89F0A4FCE5F0CE89BD
:10008E00F0A42EFFE435F0CD89F0A42DFEE435F07A
:10009E008067EF4E7005BD80D780C3EF8BF0A4ACA8
:1000AE00F0EE8BF0A42CFCE435F0F8EF8AF0A42CE3
:1000BE00E5F038FCE433CB8DF0A42CFCE5F03BF8F6
:1000CE00EE8AF0A42CFCE5F038F8E433CF89F0A4E6
:1000DE002CFCE5F038CF3400CE89F0A42FFFE5F0EC
:1000EE003EFEE433C98DF0A42EFEE5F039CD8AF044
:1000FE00A42FFFE5F03EFEE43DFD33D0E0FB5007BC
:10010E000BBB000F0201D8EC2CFCEF33FFEE33FEDD
:06011E00ED33FD0201B00B
:1001240075F020800E75F010800575F0087D007E56
:10013400007F003392D530D5031202FAEC3340101D
:10014400EF33FFEE33FEED33FDEC33FCD5F0ED225F
:0E015400E5F0247EA2D513CC92E7CDCEFF229B
:10016200EDD2E7CD33EC3392D524814006E4FFFE95
:10017200FDFC22FCE4CFCECDCC24E0501174FF80F4
:10018200EDC3CC13CCCD13CDCE13CECF13CF047091
:07019200F030D5DE0202FA95
:10019900E9D2E7C933E833F892D5EDD2E7CD33ECAC
:0701A90033FC5002B2D52225
:1001B000EC30E7100FBF000C0EBE00080DBD0004B0
:1001C0000BEB6014A2D5EB13FCED92E7FD2274FF5C
:1001D000FCFDFEFF22E480F8A2D574FF13FC7D80B5
:0301E000E480EFC9
:0300000002079262
:0C079200787FE4F6D8FD75815E0207D97F
:1001E300BB010689828A83E0225002E722BBFE021A
:0901F300E32289828A83E493224D
:1001FC00BB010CE58229F582E5833AF583E02250B8
:10020C0006E92582F8E622BBFE06E92582F8E22201
:0D021C00E58229F582E5833AF583E493221B
:10022900BB010689828A83F0225002F722BBFE01B4
:02023900F322AE
:10023B00F8BB010DE58229F582E5833AF583E8F0F9
:10024B00225006E92582C8F622BBFE05E92582C8A5
:02025B00F2228D
:10025D00EF8DF0A4A8F0CF8CF0A428CE8DF0A42EB5
:02026D00FE226F
:10026F00BC000BBE0029EF8DF084FFADF022E4CC73
:10027F00F875F008EF2FFFEE33FEEC33FCEE9DEC3C
:10028F00984005FCEE9DFE0FD5F0E9E4CEFD22ED82
:10029F00F8F5F0EE8420D21CFEADF075F008EF2FCC
:1002AF00FFED33FD4007985006D5F0F222C398FDBD
:0502BF000FD5F0EA225A
:1002C400C2D5EC30E709B2D5E4C39DFDE49CFCEE55
:1002D40030E715B2D5E4C39FFFE49EFE12026FC35C
:1002E400E49DFDE49CFC800312026F30D507C3E457
:0602F4009FFFE49EFE22C4
:0E02FA00C3E49FFFE49EFEE49DFDE49CFC2215
:10079E00020BE3E493A3F8E493A34003F68001F283
:1007AE0008DFF48029E493A3F85407240CC8C3335C
:1007BE00C4540F4420C8834004F456800146F6DF2B
:1007CE00E4800B010204081020408090081EE47E95
:1007DE00019360BCA3FF543F30E509541FFEE49320
:1007EE00A360010ECF54C025E060A840B8E493A3E7
:1007FE00FAE493A3F8E493A3C8C582C8CAC583CA12
:10080E00F0A3C8C582C8CAC583CADFE9DEE780BEC9
:01088B00006C
:00000001FF
